:1000000000200020C1000000D1030000D103000047
:10001000D1030000D1030000D10300000000000064
:10002000000000000000000000000000D1030000FC
:10003000D103000000000000D1030000D103000044
:1000400071020000990200005D020000BD03000083
:10005000D1030000D1030000D1030000D103000050
:10006000D1030000D1030000D1030000D103000040
:10007000D1030000D1030000D1030000D103000030
:10008000D1030000D1030000D1030000D103000020
:10009000D1030000D1030000D1030000D103000010
:1000A000D1030000D1030000D1030000D103000000
:1000B000D1030000D1030000D1030000D1030000F0
:1000C00038B5524BF1211B78AA2B0DD1504A514B18
:1000D00000201056504A1B7812785BB2C01852B2FA
:1000E000904201D1191CF1318020CD22C00502E0DF
:1000F00002710132D2B28023DB058A42F8DD0E2183
:100100009A6899600022D968DA60196C8021C90167
:1001100019641969FE21C9011961404B404900E089
:1001200004C38B42FCD33F4A3F4B920AD2B21A70AF
:100130003E4A3F4912680020920AD2B25A703D4AA4
:100140001268920AD2B29A7008709D785C78012287
:10015000A5420DD95A780132D2B28A705D781C78E6
:10016000021CA54204D91B78FF220133DBB24B707D
:100170002C4B1978304B1970FF2A03D12A4A9278F8
:100180001E2A02D9FF225A7006E0284A1268127805
:100190005A70284A126812789A709A78FF2A05D005
:1001A0005B78FF2B02D000F033F938BD234B244A93
:1001B000C0211360234A49001360234A2348136077
:1001C000234B02225A50C02191405C582040585085
:1001D0002049042408692043086162B61A6080231C
:1001E000DB051A6C802212021A641A6C8022D2017A
:1001F0001A649A68802252009A60A022D2059168FF
:10020000154991601A6C00221A64FEE7287C0000F0
:10021000297C00002A7C00002B7C000000000020CC
:1002200038000020FF030000280000200804000020
:10023000240000200C0400002C000020D10300004A
:10024000180000201C00002020000020FF00FFFFFD
:1002500000E100E000ED00E00000C831034A0023A7
:1002600013708022D20513707047C0461000002022
:10027000064B00221A708023DB055969044A0A40A4
:100280005A615969034A0A405A61704712000020B6
:10029000FFFFFFFEFFFFFFEF10B5A023DB051C7A79
:1002A0000F2214401E4A9B7A1278012C02D11D4A5B
:1002B000138006E0082C0AD11B4B1A780832D2B200
:1002C0001A7000F03BF8194B1B6898471BE0022C92
:1002D0000DD1082A01D0012A01D1154B02E0114AA3
:1002E0001380144B1B68984700220F4B0AE0042C24
:1002F00009D10C4A13800F4B1B6898470A4B1A7898
:100300000832D2B21A70064B01221C70A023DB0502
:100310001A72094910221A7200220A701A7210BD4C
:100320003400002036000020350000201C00002092
:1003300020000020180000200800002000B5184A06
:10034000184913880978CB18DBB2E22B0CD002D8FD
:10035000E12B23D104E0E32B0ED0E52B1ED115E0D9
:10036000114B1978114B197012880F4B12B2597832
:10037000E2239A1A0D4BD154094B1A880A4B12B238
:100380009978E3239A1A094BD15407E0084B1A686D
:10039000064B1A60074B1A68074B1A6000BDC0462F
:1003A00036000020350000202C0000200C000050FA
:1003B000240000202800002010000050034A0023E1
:1003C00013708022D20553707047C0461100002080
:1003D0007047FFFFFFFFFFFFFFFFFFFFFFFFFFFF74
:1003E000FFFFFFFFFFFFFFFFFFFFFFFFFFFFFFFF1D
:1003F0005147ADB800000000000000000000000000
:00000001FF
