:10000000000C040000000000C02100000218CD1206
:1000100020CD021CEAFFFF021C70E47889F608F686
:10002000788DF608F608F608F67887F608F67885EB
:10003000F608F67893F608F6900018E0FF120D9493
:10004000120F7C121CEA120B5E7F0A121FEE7895CB
:10005000A60608A60722FF0221A1AD07ED25E02490
:1000600068F582E43400F583E07F00FEED25E024AE
:1000700069F582E43400F583E02FFFE43EFE2202BE
:10008000090F900194EFF0E4900197F0A3F07F0145
:10009000121FEE900199EEF0A3EFF0D37896E6945C
:1000A0000018E69400400708E616187001167896C6
:1000B000E618466016900199E0FEA3E07802CEC3F0
:1000C00013CE13D8F9F0EE900199F0E49001AFF05F
:1000D000900194F0900010E0FF900194E0FEC39F27
:1000E0004003020440900091E0C394F05013EE25C9
:1000F000E02436F9D3E7941419E79400400302038F
:1001000037900194E0FF12004E900197EEF0A3EFBC
:10011000F0900194E0FF25E02446F9EF25E0245516
:10012000F8E6FE08E6FFD397EE199750030201ADFB
:10013000E025E02446F8C3EF96FDEE1896FC90010A
:1001400097E0C313FEA3E013FFD3ED9FEC9E40693D
:100150009001AFE004F09001AEE0705D900194F08A
:10016000E0FF25E02453F582E43401F583E4F0A3B5
:10017000F0EF25E025E02423F582E43401F5831235
:1001800007FE000000009001947401F0E0FF25E0FC
:100190002453F582E43401F583E4F0A3F0EF25E085
:1001A00025E02423F582E43401F5831207FE0000E4
:1001B00000009001AE7401F0229001AEE0700302E5
:1001C000029F900194E0FF25E02453F582E434017E
:1001D000F583E475F0011205C6EF25E025E0242340
:1001E000F582E43401F583C083C082E0F8A3E0F92E
:1001F000A3E0FAA3E0FBC000900194E025E02445D1
:10020000F8E6FE08E6FFE4FCFDD000EB2FFFEA3E37
:10021000FEED39FDEC38FCD082D0831207F290015C
:1002200094E025E02453F582E43401F583E0FEA355
:10023000E0FFD39407EE94004071AB07AA06E4F9FF
:10024000F8900194E025E025E02423F582E43401D0
:10025000F583E0FCA3E0FDA3E0FEA3E0FF12067D32
:10026000900194E0FD25E02455F8A60608A607EDC8
:1002700025E02453F582E43401F583E4F0A3F0EDA6
:1002800025E025E02423F582E43401F5831207FEFE
:1002900000000000900194E06005E49001AEF07F62
:1002A0000A121FEE7895A60608A6079001AEE06038
:1002B00003020437900194E0FF25E02453F582E423
:1002C0003401F583E0FCA3E04C701FEF25E02445EA
:1002D000F8E6FC08E6FDEF25E02443F582E434016E
:1002E000F583ECF0A3EDF0020363900194E0FD25AB
:1002F000E02443F582E43401F583E0FEA3E0FFED62
:1003000025E02445F8E6FC08E6FD122171AC06ADB7
:1003100007900197E0C313FEA3E013FFD3ED9FEC1A
:100320009E404C900194E0FF25E02445F8E6FC084F
:10033000E6FDEF25E02443F582E43401F583ECF09B
:10034000A3EDF0900194E0FF25E02453F582E4341E
:1003500001F583E4F0A3F0EF25E025E02423F58206
:10036000E43401F5831207FE000000000204379018
:100370000194E0FF25E02445F8E6FC08E6FDA3EC47
:10038000F0A3EDF07896E618467064EF25E024556A
:10039000F8E6FE08E6FF122171900197E0FAA3E06B
:1003A000FBC39FEA9E5048900194E0FF25E024455E
:1003B000F8E6F58308E6F582EF25E02455F8E6FC3B
:1003C00008E6FDC39582EC9583500CEAC313FEEB5F
:1003D000132DFFEC3E8011900197E0C313FEA3E0C4
:1003E00013FFC3ED9FFFEC9E900195F0A3EFF090FB
:1003F0000194E025E025E02423F582E43401F5832F
:10040000C083C082E0F8A3E0F9A3E0FAA3E0FB9088
:100410000195E0FEA3E0FFE4FCFDEB2FFFEA3EFECA
:10042000ED39FDEC38FCD082D0831207F2900194B4
:10043000E025E02453F582E43401F583E475F0010E
:100440001205C6900194E004F00200C8E49001AFE8
:10045000F0900194F0900010E0FF900194E0FEC352
:100460009F502EEE25E02453F582E43401F583E01D
:10047000FEA3E0FF900199E0FCA3E0FDD3EF9DEE29
:100480009C40069001AFE004F0900194E004F080FD
:10049000C49001AFE07003020518E4900194F0905D
:1004A0000010E0FF900194E0FEC39F5077EE25E03E
:1004B0002453F582E43401F583E0FEA3E0FF4E60AF
:1004C0005AAB07AA06E4F9F8900194E025E025E08C
:1004D0002423F582E43401F583E0FCA3E0FDA3E0EE
:1004E000FEA3E0FF12067D900194E0FD25E0245577
:1004F000F8A60608A607ED25E02453F582E43401AA
:10050000F583E4F0A3F0ED25E025E02423F582E473
:100510003401F5831207FE00000000900194E0040E
:10052000F002049322BB010689828A83E0225002F2
:10053000E722BBFE02E32289828A83E49322BB0185
:100540000CE58229F582E5833AF583E0225006E93D
:100550002582F8E622BBFE06E92582F8E222E58242
:1005600029F582E5833AF583E49322EF8DF0A4A880
:10057000F0CF8CF0A428CE8DF0A42EFE22BC000B70
:10058000BE0029EF8DF084FFADF022E4CCF875F0C9
:1005900008EF2FFFEE33FEEC33FCEE9DEC984005A8
:1005A000FCEE9DFE0FD5F0E9E4CEFD22EDF8F5F06E
:1005B000EE8420D21CFEADF075F008EF2FFFED3376
:1005C000FD4007985006D5F0F222C398FD0FD5F0F4
:1005D000EA22C5F0F8A3E028F0C5F0F8E58215821C
:1005E00070021583E038F022A3F8E0C5F025F0F0A2
:1005F000E582158270021583E0C838F0E822E88FA2
:10060000F0A4CC8BF0A42CFCE98EF0A42CFC8AF096
:10061000EDA42CFCEA8EF0A4CDA8F08BF0A42DCC98
:100620003825F0FDE98FF0A42CCD35F0FCEB8EF0F1
:10063000A4FEA9F0EB8FF0A4CFC5F02ECD39FEE4D7
:100640003CFCEAA42DCE35F0FDE43CFC2275F0081C
:10065000758200EF2FFFEE33FECD33CDCC33CCC50A
:100660008233C5829BED9AEC99E58298400CF58225
:10067000EE9BFEED9AFDEC99FC0FD5F0D6E4CEFB97
:10068000E4CDFAE4CCF9A88222B800C1B90059BA85
:10069000002DEC8BF084CFCECDFCE5F0CBF97818B3
:1006A000EF2FFFEE33FEED33FDEC33FCEB33FB10AD
:1006B000D703994004EB99FB0FD8E5E4F9FA2278C7
:1006C00018EF2FFFEE33FEED33FDEC33FCC933C9D9
:1006D00010D7059BE99A4007EC9BFCE99AF90FD8E3
:1006E000E0E4C9FAE4CCFB2275F010EF2FFFEE3303
:1006F000FEED33FDCC33CCC833C810D7079BEC9A42
:10070000E899400AED9BFDEC9AFCE899F80FD5F0CA
:10071000DAE4CDFBE4CCFAE4C8F922EB9FF5F0EA89
:100720009E42F0E99D42F0E89C45F022E8600FEC23
:10073000C313FCED13FDEE13FEEF13FFD8F122BB44
:10074000010789828A830208805005E9F802079D23
:10075000BBFE05E9F802088C89828A83020898BBEF
:10076000010DE58229F582E5833AF5830208805080
:1007700007E92582F802079DBBFE07E92582F802FA
:10078000088CE58229F582E5833AF583020898BB57
:10079000010789828A830207F25005E9F80207E619
:1007A000BBFE05E9F80208D122E6FC08E6FD08E6F2
:1007B000FE08E6FF22E6FB08E6F908E6FA08E6CBC3
:1007C000F822BB010DE58229F582E5833AF5830223
:1007D00008A85007E92582F80207A9BBFE07E9250A
:1007E00082F80208B4E58229F582E5833AF58302AE
:1007F00008C1ECF608EDF608EEF608EFF622ECF08C
:10080000A3EDF0A3EEF0A3EFF022A8828583F0D051
:1008100083D082120815120815120815120815E463
:1008200073E493A3C583C5F0C583C8C582C8F0A38C
:10083000C583C5F0C583C8C582C822BB010DE5824A
:1008400029F582E5833AF5830207FE5007E9258200
:10085000F80208DDBBFE07E92582F80208F622EC63
:100860008EF0A4CCC5F0CCCDF8EFA4CEC5F02DFD14
:10087000E43CFCE8A42EC8C5F03DFDE43CFCEFA43C
:10088000FFE5F028FEE43DFDE43CFC22E0FCA3E0B3
:10089000FDA3E0FEA3E0FF22E2FC08E2FD08E2FE89
:1008A00008E2FF22E493FC740193FD740293FE744A
:1008B0000393FF22E0F8A3E0F9A3E0FAA3E0FB2210
:1008C000E2FB08E2F908E2FA08E2CBF822E493F846
:1008D000740193F9740293FA740393FB22ECF20807
:1008E000EDF208EEF208EFF222D083D082E493F624
:1008F00008740193F608740293F608740393F6746F
:100900000473D083D082E493F208740193F20874E4
:100910000293F208740393F2740473C0E0C0F0C051
:1009200083C082C0D075D00820F903020B4730FD88
:1009300003020B4720FB03020B4720FC030209BA0A
:1009400078B9E6F5FC53A1BFC2FF751001AB12AA3E
:1009500013A914851082758300120532F511C2FFA8
:1009600043F92078BC76C308765020FF1220FA0F96
:1009700078BDE6161870011678BDE6184670EB30A3
:10098000FA03020B478511FC0510AB12AA13A91438
:10099000851082758300120532F511C2FF43F920DC
:1009A00078BC76C308765020FF1220FA0F78BDE697
:1009B000161870011678BDE6184670EB78BDE6187B
:1009C0004670BC020B4753A1BFC2FF751000C2FFA7
:1009D00043F92078BC76C308765020FF1220FA0F26
:1009E00078BDE6161870011678BDE6184670EB2043
:1009F000FB4085FC1130FA03020B4774982510F870
:100A0000A6110510C2FF43F92078BC76C3087650C2
:100A100020FF1220FA0F78BDE6161870011678BD77
:100A2000E6184670EB85FC1178BDE6184670C602E4
:100A30000B4785FC107897A610AB12AA13A914AF28
:100A40001005108F82758300120532F511C2FF4325
:100A5000F92078BC76C308765020FF1220FA0F7870
:100A6000BDE6161870011678BDE6184670EB20FC3E
:100A700003020B1A7897E6FF54F06480706B7400E1
:100A80002FF582E43400F583E075F003A42466F5C5
:100A900082E43420F583E493F9740193FA740293A9
:100AA000900180C9F0A3EAF0A3E9F030FA03020B49
:100AB00047900180E0FBA3E475F0011205DCA9F08A
:100AC000FA120519F5FCC2FF43F92078BC76C30879
:100AD000765020FFD620FAD378BDE616187001169E
:100AE00078BDE6184670EB80C220FA678511FCAB32
:100AF00012AA13A914AF1005108F82758300120576
:100B000032F511C2FF43F92078BC76C30876502035
:100B1000FFD720FAD478BDE6161870011678BDE626
:100B2000184670EB80C37897E6062498F8A6FCC2B6
:100B3000FF43F92078BC76C308765020FF1220FAD4
:100B40000F78BDE6161870011678BDE6184670EBF2
:100B500030FAD3C2FF43F92043A14078A47601D0F4
:100B6000D0D082D083D0F0D0E032E4900194F090E5
:100B70000010E0FF900194E0C39F505EE0FB25E091
:100B800025E02423F582E43401F5831207FE0000FA
:100B90000000EB25E02443F582E43401F583E4F022
:100BA000A3F0900194E0FF25E02453F582E43401A2
:100BB000F583E4F0A3F0900120E0FBA3E0FAA3E0CA
:100BC000F975F004EFA4F58285F08312082F000078
:100BD0000000900194E004F080951214C4E49001A8
:100BE00094F0900010E0FF900194E0FEC39F5069E4
:100BF000EE25E025E02423F582E43401F583C0836B
:100C0000C082E0FCA3E0FDA3E0FEA3E0FF90012092
:100C1000E0FBA3E0FAA3E0F9900194E075F004A4EE
:100C2000F58285F0831207B6EF2BFFEE3AFEED3921
:100C3000FDEC38FCD082D0831207F2900194E025BD
:100C4000E02453F582E43401F583E475F0011205E4
:100C5000C6900194E004F08089C3900154E09405AB
:100C6000900153E094005003020BCEE4900194F005
:100C7000900010E0FF900194E0FEC39F4003020D3E
:100C80008DEE25E02453F582E43401F583E0FEA3E4
:100C9000E0FBAA06E4F9F8900194E025E025E024C1
:100CA00023F582E43401F583E0FCA3E0FDA3E0FE3C
:100CB000A3E0FF12067D9001951207F2E47F787E93
:100CC00069FDFC900195E0F8A3E0F9A3E0FAA3E048
:100CD000FBD312070F403E900195E0FCA3E0FDA37B
:100CE000E0FEA3E02458FFEE349EFEED34FFFDEC61
:100CF00034FFFC900194E0FB25E025E02400F58220
:100D0000E43401F5831207F2EB25E02455F876610F
:100D10000876A8802E900194E0FB25E025E02400D1
:100D2000F582E43401F5831207FE00000000900113
:100D300095A3A3E0FEA3E0FFEB25E02455F8A6066B
:100D400008A607900194E0FF25E02425F8E4F608C2
:100D5000F6EF25E02455F8E6FE08E6FFE0FD25E085
:100D6000246DF8A60608A607ED25E025E02423F566
:100D700082E43401F5831207FE0000000090019424
:100D8000E025E02453F582E43401F583E4F0A3F098
:100D9000900194E004F0020C64900097E004F022CB
:100DA000900019E0F5C290FB04EFF0787D7608081A
:100DB0007608E4F5C375BB0F75B3A0F5AAF5BEF5CB
:100DC000BF75E61890FB05743BF0E490FB09F090CA
:100DD000FB0A74F0F090FB0B7478F090FB0CF09031
:100DE000FB0D7401F0E4F5BC75BD4B900195F090DE
:100DF0000010E0FF900195E0FEC39F502490012079
:100E0000E0FBA3E0FAA3E0F975F004EEA4F5828517
:100E1000F08312082F00000000900195E004F0809C
:100E2000CE900194740AF090FB0674FFF090FB07DB
:100E3000F090FB08F0E4900195F0900010E0FF9036
:100E40000195E0C39F504E121B4C900120E0FBA384
:100E5000E0FAA3E0F9900195E075F004A4F582E9C9
:100E60002582F9EA35F0FAC002C00112073390FB7F
:100E700000E0F8A3E0F9A3E0FAA3E02FFFEA3EFECA
:100E8000E93DFDE83CFCD001D002120783900195BA
:100E9000E004F080A5E490FB06F090FB07F090FBE7
:100EA00008F0900195F0900010E0FF900195E0C3EC
:100EB0009F5055121B4C900120E0FBA3E0FAA3E0E9
:100EC000F9900195E075F004A4F582E92582F9EA2C
:100ED00035F0FAC003C002C00112073390FB00E0F6
:100EE000F8A3E0F9A3E0FAA3E0FBC3EF9BFFEE9ABF
:100EF000FEED99FDEC98FCD001D002D003120783DF
:100F0000900195E004F0809ED2D8900194E014F016
:100F1000E06003020E1BE4900195F0900010E0FFEA
:100F2000900195E0C39F505FA31207FE00004010A0
:100F3000900196E0FCA3E0FDA3E0FEA3E0FFE47BCC
:100F40004BFAF9F81205F29001961207F29001207F
:100F5000E0FBA3E0FAA3E0F9900195E075F004A4AA
:100F6000F58285F0831207B6900196E0FCA3E0FDC0
:100F7000A3E0FEA3E0FF12067D900195E02465F852
:100F8000A607E004F08094229001947407F0FD75A8
:100F9000E61875CF1FE4F5C375BB0F75B3A090FBC2
:100FA0000674FFF090FB07F090FB08F0900194E0CE
:100FB000FF602274017E00A807088005C333CE338A
:100FC000CED8F9FF90FB0AE0FBEF5B70089001942C
:100FD000E014F080D7ED601D74017E00A805088044
:100FE00005C333CE33CED8F9FF90FB0BE0FBEF5BAC
:100FF00070031D80E0900194E0FF7401A807088051
:1010000002C333D8FC90FB0AF07401A805088002E3
:10101000C333D8FC90FB0BF090FB0CF090019512C1
:1010200007FE00000000E4900194F0900010E0FF43
:10103000900194E0FEC39F506574002EF582E43465
:1010400000F583E0FFF4604E900194E0247DF8E623
:1010500090FB04F074652EF8E6F5BD121B6290FB60
:1010600000E0FCA3E0FDA3E0FEA3E0FF900195E01B
:10107000F8A3E0F9A3E0FAA3E0FBC312070F5014B2
:1010800090FB00E0FCA3E0FDA3E0FEA3E0FF9001E5
:10109000951207F2D2D8900194E004F0808D90016F
:1010A00095E0FCA3E0FDA3E0FEA3E0FF78081207B3
:1010B000207867A607900195A3A3A3E0FF08A607E1
:1010C000900195E0F8A3E0F9A3E0FAA3E0FBC000EB
:1010D000900195E0FCA3E0FDA3E0FEA3E0FF780310
:1010E000120720D000EB2FFFEA3EFEE93DFDE83C71
:1010F000FC9001951207F2900195E0FCA3E0FDA39E
:10110000E0FEA3E0FF7810120720900020EFF0909F
:101110000195E0FCA3E0FDA3E0FEA3E0FF78081248
:101120000720900021EFF0900195A3A3A3E0900089
:1011300022F022E490019DF0A3F0A3F0A3F0781533
:10114000E6FE08E6FF900199EEF0A3EFF0A3EEF0C3
:10115000A3EFF0E4FFF9FE900010E0FDEEC39D5018
:1011600055EE25E02415F8E6FC08E6FDC390019A4B
:10117000E09D900199E09C5011AF06EE25E024150A
:10118000F8E6FD08E6CDF0A3EDF0EE25E02415F835
:10119000E6FC08E6FDD390019CE09D90019BE09C5D
:1011A0004011A906EE25E02415F8E6FD08E6CDF08D
:1011B000A3EDF00E80A1900098EFF0A3E9F0E49089
:1011C0000199F0A3F0FE900010E0FDEEC39D507A6F
:1011D000EE25E02415F8E6FC08E6FDD39423EC9414
:1011E0000040069001A0E004F0D3ED942DEC9400B3
:1011F000400690019DE004F0D3ED9437EC9400405C
:101200000690019EE004F0D3ED9441EC940040067A
:1012100090019FE004F0900098E06E6029EE25E0D8
:101220002415F8E6FC08E6FDC390019AE09D9001C4
:1012300099E09C5011AF06EE25E02415F8E6FD0874
:10124000E6CDF0A3EDF00E0211BA90009DEFF09004
:1012500001A0E090009FF090019DE090009AF09036
:10126000019EE090009BF090019FE090009CF02296
:101270004101B0FF4801A1000102040810204050C4
:101280000183022C01D8010E010E010E010E010E88
:10129000010E48017701020408102040806100001F
:1012A000000D11FFFFFFFFFFFFFFFFFFFFFFFFFF2D
:1012B000FF02080FA000000032100C060000280AF0
:1012C0000402000000000000000401FFFF00000015
:1012D000AA0000000000000000006464646464640C
:1012E0006464000000000000000000000000000036
:1012F00000000000000000000000000000000000EE
:10130000000000000000000000022C01D8010E01C6
:101310000E010E010E010E010E010E010E010E0155
:101320000E000102030405060708090A0B0C0D0E46
:101330000F01FFFF0000800000000000000000001F
:10134000000000000000000000000000000000009D
:10135000000000000000000000000000000000008D
:10136000000000000000000000000000000000007D
:10137000000000000000000000000000000000006D
:10138000000000000000000000000000000000005D
:10139000000000000000000000000000000000004D
:1013A000FF00E4900193F0900010E0FF900193E0C3
:1013B000C39F40030214C1900120E0FBA3E0FAA305
:1013C000E0F9900193E075F004A4F58285F08312B2
:1013D0000753EC4D4E4F70030214A8900193E02583
:1013E000E025E02400F582E43401F583E0F8A3E091
:1013F000F9A3E0FAA3E0FBD312070F40037F032217
:10140000900120E0FBA3E0FAA3E0F9900193E075DE
:10141000F004A4F58285F083120753900193E02530
:10142000E025E02400F582E43401F583E0F8A3E050
:10143000F9A3E0FAA3E0FBC3EF9BFFEE9AFEED9960
:10144000FDEC98FC78C21207E6E47FFF7EFFFDFC0E
:1014500078C21207A9C312070F40037F032278C284
:1014600012079D900193E0FD25E02445F8A60608AB
:10147000A607ED25E02456F9ED25E02445F8E6FE23
:1014800008E6FFD397EE1997401BE025E02456F8B5
:10149000C3EF96FFEE1896FEE025E02425F8A60699
:1014A00008A607801F900193E025E02425F8E4F6C4
:1014B00008F68010900193E025E02425F8E4F60872
:1014C000F67F0322900193E004F002139B7F072232
:1014D00090001AE090019BF0E4900199F0900010C8
:1014E000E0FF900199E0FEC39F5024900120E0FBB3
:1014F000A3E0FAA3E0F975F004EEA4F58285F08389
:1015000012082F00000000900199E004F080CE75D1
:10151000E61875CF1F90FB0674FFF090FB07F09064
:10152000FB08F0900018E090FB04F0900020E0F53C
:10153000C3A3E0F5BBA3E0F5B3E4F5BC787D760882
:10154000087608900199F090019BE0FF900199E0E6
:10155000C39F40030215C9E4A3F0900010E0FF9080
:10156000019AE0FEC39F5064E0FF2465F8E6F5BDF4
:10157000747D2FF8E690FB04F074002E121B599036
:101580000120E0FBA3E0FAA3E0F990019AE075F0F6
:1015900004A4F582E92582F9EA35F0FAC002C00117
:1015A00012073390FB00E0F8A3E0F9A3E0FAA3E010
:1015B0002FFFEA3EFEE93DFDE83CFCD001D00212DF
:1015C0000783D2D890019AE004F0808E900199E0D0
:1015D00004F002153B75E61875CF1F229001937435
:1015E00008F01216D6121BE8BF010A900092E0FF25
:1015F00012007680030216D07F02121FEED3788E7F
:10160000E69F18E69E400280157887E6FE08E6FF12
:10161000D39400EE94004014EF64014E7006121F44
:10162000940216CB7888E61618700116900092E0A6
:101630009001B0F02410605414605F24F27073784D
:101640006DE6FE08E6FF08E6FC08E6FD122171D310
:10165000EF9464EE9400400A789406E61870090648
:101660008006E47893F608F67F07121FEED378948D
:10167000E69F18E69E40069001937403F0121F94B3
:10168000E47885F608F608F608F68050121F94787C
:1016900088E6184670467F06800C121F947888E60C
:1016A000184670387F04121FEE7887A60608A60732
:1016B000802AE47887F608F69001B0E0FF121DA4B6
:1016C000788606E6187001067F05121FEED378862D
:1016D000E69F18E69E400512000E8000900193E000
:1016E000FF22E4FF12004EE4FCFDC004A905AA0697
:1016F000AB077825E6FE08E6FF7D64120853D000AC
:1017000012067D900195EEF0A3EFF0900194740124
:10171000F0900010E0FF900194E0F9C39F5054AFA7
:101720000112004EE4FCFDC004A905AA06AB079017
:101730000194E025E02425F8E6FE08E6FF7D64122A
:101740000853D00012067D900197EEF0A3EFF0D37E
:10175000900196E09F900195E09E400F900197E0E8
:10176000FFA3E0900195CFF0A3EFF0900194E00487
:10177000F0809EE4900194F0900010E0FF900194BE
:10178000E0F9C39F505EAF0112004EE4FCFDC004BF
:10179000A905AA06AB07900194E025E02425F8E608
:1017A000FE08E6FF7D64120853D00012067D90010A
:1017B00097EEF0A3EFF0900195E0FCA3E0FDC3EFFE
:1017C0009DFDEE9CFC900194E0FB25E02415F8A61D
:1017D0000408A605EB25E02435F8A60608A607E0D0
:1017E00004F080942212203E122196900090740101
:1017F000F0122016121DF7121EFC43D40843DC0819
:1018000053E4F7D2B390009E74FFF0121F6543D4E7
:101810000343E40343B003900090E024FD603114DF
:10182000603924FE604E14605514606524077067AB
:1018300012215A122016121D4E12000312000E120F
:101840001F657F0A121FEE7895A60608A60780413D
:10185000121D4E12000312000E80369001ABE00400
:10186000F070069001AAE004F01214C49000907485
:1018700006F08023121396900090EFF08019121555
:10188000D0900090EFF078A5E678B9F6121AA6800D
:10189000069000907404F09000FBE06029E478A4C6
:1018A000F6C2B3F0900175F0A3F0900176E004F079
:1018B0007006900175E004F0900175E07004A3E0FB
:1018C000645070E6D2B378A4E6600678A5E64408D2
:1018D000F6D2D8121E8A02180B43F580C2DC002013
:1018E000DCF790FF03E493FFF4FE90FF02E493FD26
:1018F000B506048D9A8003759A4C90FF05E493FF1A
:10190000F4FE90FF04E493FDB506048D8480037516
:10191000840490FFFEE493FFF4FE90FFFFE493FD48
:10192000B506048D8F8003758F2543C60C9000008B
:101930007F007E04E4F0A3DFFCDEFA78FFE4F6D853
:10194000FD7581C50219790200000217D9E493A33D
:10195000F8E493A34003F68001F208DFF48029E461
:1019600093A3F85407240CC8C333C4540F4420C8AD
:10197000834004F456800146F6DFE4800B01020444
:101980000810204080901264E47E019360BCA3FFA5
:10199000543F30E509541FFEE493A360010ECF5479
:1019A000C025E060A840B8E493A3FAE493A3F8E468
:1019B00093A3C8C582C8CAC583CAF0A3C8C582C8D4
:1019C000CAC583CADFE9DEE780BE12112790001086
:1019D000E0FF900091E0FEC39F5013EE25E0243617
:1019E000F9C3E7943C19E794004003E0FF2290001C
:1019F00098E0FE25E02416F9D3E7943C19E794001B
:101A00004009900091E0FFF46004227FFF22D37927
:101A10006EE778709619E718964007E4900198F001
:101A200080069001987401F0900198E06E70407803
:101A30006DE6FE08E6FF08E6FC08E6FD122171905F
:101A40000196EEF0A3EFF07845E6FE08E6FF08E623
:101A5000FC08E6FD122171900197E02432FD90010F
:101A600096E03400FCC3EF9DEE9C50407FFF229037
:101A70000098E025E02445F8E6FC08E6FD90019892
:101A8000E025E02446F9D3E79D19E79C40037FFF5A
:101A900022900098E025E0246EF8E62432FF18E456
:101AA00036FEC3ED9FEC9E50037FFF22900098E02E
:101AB000FF22E4900193F0900193E0FFC394024071
:101AC00003021B4BEF25E02435F8E6FE08E6FFD3C2
:101AD0009414EE94004002801F900193E0FF25E0F3
:101AE0002436F9EF75F008A424ACF8E627FF18E6D1
:101AF0001937C313FEEF13FFE075F008A424ABF809
:101B0000A60608A607900193E0FF25E02425F8E645
:101B1000FC08E6FDEF75F008A424ADF8A60408A6BD
:101B200005900120E0FBA3E0FAA3E0F9900193E027
:101B300075F004A4F58285F0831207537808120724
:101B400020900193E075F008A424AFF8A60608A63B
:101B500007E004F0021AAB22E0FF247DF8E690FBD8
:101B600004F074002FF582E43400F583E0FFEF13F6
:101B70001313541FFEEF540790210B93FDEFD394E2
:101B80001740037F0022EE14600F146014240270CB
:101B900018ED42E1ED42D98013ED42E2ED42DA80E8
:101BA0000BED42E3ED42DB80037F0022EF4420F5A2
:101BB000E675C70D00000000000043C101E5C1301B
:101BC000E1FB53C1FD75E618EE14600F1460142498
:101BD000027018EDF452E152D98013EDF452E25242
:101BE000DA800BEDF452E352DB80037F0022E4F550
:101BF000C77F01221219BE900194EFF0F4706DA31B
:101C0000F0900010E0FF900195E0FEC39F505DEE64
:101C100025E0246DF8E6FE08E6FFE4FCFD78BE1240
:101C200007E6E47F1FFEFDFC78BE1207A91205F24D
:101C3000C004A905AA06AB07900195E025E024455C
:101C4000F8E6FE08E6FFE4FCFDD000EB2FFFEA3EDD
:101C5000FEED39FDEC38FC7805120720E025E02484
:101C60006DF8A60608A607E004F08095900194E0C0
:101C7000FF121F33EF7002FF227F0122C0E0C0F08D
:101C8000C083C082C0D075D000C000C004C005C0F1
:101C900006C007C28D758CFD758A869001B2E0047E
:101CA000F070069001B1E004F09001B1E0FEA3E015
:101CB000FF7C077DD0120571ED4C70259001AAE0E4
:101CC000FEA3E0FFD3940AEE940040089001ACEE2E
:101CD000F0A3EFF09001AAE4F0A3F09001B1F0A31B
:101CE000F0D007D006D005D004D000D0D0D082D01C
:101CF00083D0F0D0E032900019E0F5C2900018E0F7
:101D000090FB04F0900020E0F5C3A3E0F5BBA3E056
:101D1000F5B3E4F5AA900014E0F5BEA3E0F5BFA387
:101D2000E0F5BCA3E0F5BD75E61890FB05743BF04B
:101D300090FB0674FFF090FB07F090FB08F0E49036
:101D4000FB09F090FB0A74F0F090FB0B7478F090B4
:101D5000FB0CF090FB0D7401F02290009174FFF0E9
:101D6000A3F0E4A3F07885F608F67889F608F6087B
:101D7000F608F608F608F608F608F67887F608F684
:101D80007893F608F6FF900010E0FEEFC39E501F18
:101D9000900120E0FBA3E0FAA3E0F975F004EFA4C2
:101DA000F58285F08312082F000000000F80D722F3
:101DB000E4FE900010E0FDEFC39D501E900091E006
:101DC0006F6017E47885F608F674A12FF582E43485
:101DD00001F583E0FE900091EFF0900091E0FF901C
:101DE000009EE06F6014EF14600304700D9000FB20
:101DF000E0700704F0EE0478A5F6900091E0900002
:101E00009EF022E478A5F608760408F608F6FFEFBF
:101E100075F008A424A9F8760008763CEF75F00860
:101E2000A424ABF8E4F608F6EF75F008A424ADF8A6
:101E3000E4F608F6EF75F008A424AFF8E4F608F627
:101E40000FEFB402CA7512007513007514A522EFC6
:101E5000131313541FFEEF54072477F582E4340163
:101E6000F583E0FFEE14601214601A24027021EF73
:101E700042E1EF42D9EF42D18019EF42E2EF42DA7C
:101E8000EF42D2800EEF42E3EF42DBEF42D380031A
:101E90007F00227F01227898E6FF6032E4F6EF248B
:101EA000E0600C24A0600D247070237F018002E4A8
:101EB000FF022128121FC212214212208A53DCF78E
:101EC00053E4F753D4F7D2B39000907401F022E4B6
:101ED000FEEE75F003A42413F582E43421F583E4C7
:101EE00093FDF4601FEFB50516EE75F003A42414FE
:101EF000F582E43421F583E493FE740193FF220E0E
:101F0000EEB407CDE4FEFF227E007FE0E4FDED2588
:101F1000E024ADF582E43420F583E493B4FF01229C
:101F2000ED25E024AEF582E43420F583E493FCEF64
:101F30002DF582E43EF583ECF00DEDB410D0229047
:101F4000001FE0FE900092E06F6005EFF0E4A3F068
:101F5000900092E0B4FF02E4FEAF06900093E0042C
:101F6000F0C39F50037F00229000937404F07F0120
:101F70002243B14053FAF790FFF8E493B4F80B43CF
:101F8000FA0443F90243F901800343FA0443F902D6
:101F900043F90153F9BF75FB4053FAFD43A14022B9
:101FA000E47885F608F690009174FFF090009EE0CA
:101FB000FFF46013EF14600304700C9000FB7401D5
:101FC000F078A5E64408F690009E74FFF022E4F550
:101FD000D9F5D1F5E1F5D57580FFF5DAF5D2F5E261
:101FE000F5DD7590FFF5DBF5D3F5E3F5E575A0FFBD
:101FF00043DC0843E40853D4F7229000E0EFB4FF39
:10200000057F017E0022E5822FF582E43583F5838A
:10201000E0FB9001ACE0FCA3E0FDAF037E00120505
:102020005F22E4900097F09001AAF0A3F09001AC39
:10203000F0A37420F090002A74FFF0900120740146
:10204000F0A37400F0A374A0F02243850343910130
:1020500053E12053D52053802053E23C53DD3C53C1
:10206000903C53E30353E50353A00353E40B53B0F5
:102070000B2200004500006D00005500005D0000CF
:102080001500001D00002500002D010091000065D5
:1020900000007D000067AFD653C7FBE4F5D6C2D978
:1020A00053A1EF539AF05391FE5387FC43870200EC
:1020B000004391018FD60221870002010102010332
:1020C000010401051E06050702080A09020A020B9F
:1020D000280C3C0D1E0E01FF01E4FD900010E0FFF6
:1020E000EDC39F501274002DF582E43400F583E0B7
:1020F000FF121E430D80E422438901C28DD2A953F1
:10210000B7FD53B8FDE49001B1F0A3F0758CFD75F7
:102110008A86D28CD2AF22010204081020408001AE
:102120000521060995020CF10C0F411411A80416A3
:1021300062FF00FFEFB40111C293C2927F0A121F27
:10214000EE7895A60608A60722D293D2922243DC07
:102150000843E40853D4F7D2B353B2FDE4F5BA53BD
:1021600091DF43A1022275C60CE4F5C7F5C175CE17
:102170004275D6061221871220ECD2AF22D3EF9DF2
:10218000EE9C4007EF9DFFEE9CFE22C3ED9FFFEC0F
:102190009EFE22D2DFC2DA538E1F438EA0D2D8D247
:1021A000D92275AD0C53DAF3D293D2922253B2DF17
:1021B00032FFFFFFFFFFFFFFFFFFFFFFFFFFFFFFFC
:0C21C000FFFFFFFFFFFFFFFFFFFFFFFF1F
:00000001FF
