:1000000000200020C1000000C5030000C50300005F
:10001000C5030000C5030000C50300000000000088
:10002000000000000000000000000000C503000008
:10003000C503000000000000C5030000C503000068
:10004000650200008D02000051020000B1030000B3
:10005000C5030000C5030000C5030000C503000080
:10006000C5030000C5030000C5030000C503000070
:10007000C5030000C5030000C5030000C503000060
:10008000C5030000C5030000C5030000C503000050
:10009000C5030000C5030000C5030000C503000040
:1000A000C5030000C5030000C5030000C503000030
:1000B000C5030000C5030000C5030000C503000020
:1000C00038B54F4BF1211B78AA2B0DD14D4A4E4B21
:1000D000002010564D4A1B7812785BB2C01852B2FD
:1000E000904201D1191CF1318023DB055A68596017
:1000F00099680E2199600022D968DA60196C802114
:10010000C90119641969FE21C9011961404B4149AE
:1001100000E004C38B42FCD33F4A404B920AD2B268
:100120001A703F4A3F4912680020920AD2B25A70B0
:100130003D4A1268920AD2B29A7008709D785C7833
:100140000122A5420DD95A780132D2B28A705D7867
:100150001C78021CA54204D91B78FF220133DBB2B4
:100160004B702D4B1978314B1970FF2A03D12B4A54
:1001700092781E2A02D9FF225A7006E0284A126895
:1001800012785A70284A126812789A709A78FF2A60
:1001900005D05B78FF2B02D000F03AF938BD244B34
:1001A000244AC0211360244A49001360234A24488A
:1001B0001360244B02225A50C02191405C582040C9
:1001C00058502149042408692043086162B61A6026
:1001D0008023DB051A6C802212021A641A6C8022BA
:1001E000D2011A649A68802252009A60A022D20535
:1001F0009168164991601A6C00221A64FEE7C046A5
:10020000287C0000297C00002A7C00002B7C000058
:100210000000002038000020FF030000280000201C
:1002200008040000240000200C0400002C00002022
:10023000C5030000180000201C0000202000002042
:10024000FF00FFFF00E100E000ED00E00000C84219
:10025000034A002313708022D20513707047C046F2
:1002600010000020064B00221A708023DB0559691C
:10027000044A0A405A615969034A0A405A61704760
:1002800012000020FFFFFFFEFFFFFFEF10B5A023CD
:10029000DB051C7A0F2214401E4A9B7A1278012C2F
:1002A00002D11D4A138006E0082C0AD11B4B1A7894
:1002B0000832D2B21A7000F03BF8194B1B6898470D
:1002C0001BE0022C0DD1082A01D0012A01D1154BC7
:1002D00002E0114A1380144B1B68984700220F4B11
:1002E0000AE0042C09D10C4A13800F4B1B68984775
:1002F0000A4B1A780832D2B21A70064B01221C70CF
:10030000A023DB051A72094910221A7200220A7012
:100310001A7210BD34000020360000203500002085
:100320001C000020200000201800002008000020F1
:1003300000B5184A184913880978CB18DBB2E22BAC
:100340000CD002D8E12B23D104E0E32B0ED0E52B17
:100350001ED115E0114B1978114B197012880F4BF3
:1003600012B25978E2239A1A0D4BD154094B1A88CC
:100370000A4B12B29978E3239A1A094BD15407E039
:10038000084B1A68064B1A60074B1A68074B1A602D
:1003900000BDC04636000020350000202C000020A3
:1003A0000C00005024000020280000201000005005
:1003B000034A002313708022D20553707047C04651
:1003C000110000207047FFFFFFFFFFFFFFFFFFFF4F
:1003D000FFFFFFFFFFFFFFFFFFFFFFFFFFFFFFFF2D
:1003E000FFFFFFFFFFFFFFFFFFFFFFFFFFFFFFFF1D
:1003F0007F38BD5A00000000000000000000050525
:100400004D314830434F3534FF530000FF7B00002F
:10041000F0B58BB003F070FCDB4BDC4E1B680025A5
:100420000793DB4B03241B680893DA4B1B68099383
:10043000013CFC21305D890001F092FCA20007AB79
:10044000D358984203D0D44BFF221A550125002CD3
:10045000EED1002D2ED0D14BD14AC0211360D14A0C
:1004600049001360D04AD1481360D14B02225A5040
:10047000C02191405D5828405850CE490425086954
:100480002843086162B61A608023DB051A6C80225B
:1004900012021A641A6C8022D2011A649A688022AD
:1004A00052009A60A022D2059168C34991601A6CEB
:1004B0001C64FEE704F06EFC05F0A0FBBF4B1B685C
:1004C0009847BF4CE37A002B0ED000F075FBBD4B74
:1004D0009A785A7002F04AFEE37A002BFCD1BA48AF
:1004E000BA49702204F044FEFF240394B84B1A78F2
:1004F000002A2ED1B24937310978484241411120B2
:10050000401AB44903900870B3490A7001221A7066
:1005100000F052FBAB4B9A785A70A84B1B68984777
:1005200002F024FE01F082FC8023DB051A6C7F219F
:100530008A431A6400F050FB02F0A8FF01F076FC39
:1005400001F020FCA54B02201B689847A44803F04B
:1005500075F9A44C2378002B03D1A34B1B78002BF7
:1005600011D000F045FB22789A4B002A04D068464F
:100570000C21085C187001E012221A70994A0023BD
:100580001370994A1370994C2378002B03D1984B20
:100590001B78002B03D003F06FF80028FBD1944B9D
:1005A0001B78237000F03CFD8A4B69461B78CB74A6
:1005B0005BB2112B0CD005DC002B78D0102B00D0B7
:1005C000E7E113E0122B34D0142B00D0E1E139E045
:1005D000814B00221A7000F0DDFB804B1A201B6853
:1005E0009847844B1B78002B00D0D2E17F4B1B78BF
:1005F000002B07D063230093002001217E4A0223B1
:1006000003F0ADFB6F4B587803F060FB6E4DE87B59
:1006100003F0D8F8794C2060287C03F0D3F8684BBD
:1006200060601B7CEA7B1B205343A3606B4B1B6801
:100630009847694B00221A7001F0E8F8674B1C20BC
:100640001B689847644B01241C7000F0C5FA03F046
:1006500069F803F0FDFB5C4B271C1B19DB7F802432
:1006600005930026E40509E003F0ACFCA36C013619
:100670003B43A36403F0D2F803F054F8059A8025B5
:10068000ED05B242F0D103F017FDAB6C012213432C
:10069000AB6403F0C3F800F027FD002800D125E784
:1006A0004C4B00221A704D4B1D201B68984700F0E0
:1006B0003DFE4A4C032023689847514B01271F7089
:1006C0008023DB055969802252040A435A6103F0F2
:1006D00029F84C4D4C4E3C4B321CDB8A7842291C8D
:1006E00004F0E4F9494B2A881A8032885A803F4B3B
:1006F0001B78002B04D00B2002213A1C03F039FB9D
:1007000023680520984703F035FD00280AD1802290
:10071000D20551690123090E090619435161324A74
:1007200013702FE13A4900230A689A4202DD4B68B0
:10073000D318DB0F374C04202370284B1B689847D5
:10074000334B324D5A681B682A806B80274B1B78CD
:10075000002B04D017200221642203F00AFB237827
:100760002D4C002B62D023682B80204B1B78002B54
:1007700004D000200121102203F0FBFA2368022B91
:100780004CDC01332360D5E0F0030000280000209A
:10079000F0530000F07B00002C000020C503000097
:1007A000180000201C00002020000020FF00FFFF98
:1007B00000E100E000ED00E00000C84290000020F1
:1007C000C00F00203810002004130020200E00204D
:1007D000EF000020900E0020EE0000200C02002010
:1007E00010270000F0000020F1000020EC000020A5
:1007F000ED000020F800002039100020EC0300205C
:1008000012000020661A0020681A0020B21A002088
:1008100048010020701A00204401002000F0CEFDA5
:10082000BF4B14221A700023236083E0236001F081
:100830009FFBBC4C06202368984701F053FBBA4B42
:10084000DB89002B01D004F07BF82368082098474F
:1008500002F074FFB54B1B78002B13D104F0CCF9D8
:1008600000280FD100F0AAFDAD4B12221A70802390
:10087000DB055A690121120E12060A435A6102F081
:1008800091FF7FE002F08EFFA64C0A202368984774
:1008900001F090FB0B2023689847A54B1B689847F5
:1008A00002F08CF902F0F2FA23680E20984702F069
:1008B0003FFBA04BA0491A68A04B002A0CD0A048CF
:1008C0000A780078904204D901320A7001221A7025
:1008D00004E000221A7001E00A701A70994B1B782C
:1008E000002B03D1984B1B78002B03D1934B1B7823
:1008F000002B07D08023DB055A690121120E120656
:100900000A435A6100F064FD00283BD0854B0F205C
:100910001B689847844DEB7A002B14D000F04EFDF5
:10092000EC7A002CFCD189488949702204F020FC23
:10093000884B1C708023DB055A690121120E1206B8
:100940000A435A611EE0844B1A68844B002A04D182
:1009500078490968002900DD1A70363519782A7837
:10096000914201D300221A701B78002B06D16D4BE7
:1009700010201B6898477A4B1B689847774B1A786A
:1009800001321A7000F0C0FE764B0020185600F0BD
:1009900041FE644B12201B686C469847724BE47C06
:1009A0001C70724B1D78002D00D0FEE7704B1B7839
:1009B000002B00D19AE56F4E3378002B00D0A7E0D2
:1009C00094E53B785BB2013300D1A2E03C7863B29E
:1009D000022B70D005DC002B0AD0012B00D087E061
:1009E00062E0042B77D06EDB052B00D080E032E094
:1009F00002F042FE0028FBD15F4A012313705F4AD8
:100A00005F49156810605F4A13705F4A146821409F
:100A100080249C40214311605C4A5D4913605D4A1B
:100A2000497B13705C4B18703F4B1A7D58738A18C2
:100A30001A753C4B14201B68984700F0BDF8574BC3
:100A40009A785A7003F06CF803F0A4F803F014F9E4
:100A500000F0DCFE4CE00023514A33701178464A26
:100A60003A481170454A4949156001220A604949CE
:100A70000A70494A1370464B5A7B2B4B197D5A73A7
:100A80008A1A1A75474B1B78002B04D046497022EE
:100A900004F06EFB03E02E49702204F069FB214B49
:100AA00015201B68984723E01E4B16201B689847AB
:100AB000384B1C701CE01B4B17201B689847354BAC
:100AC00001221A7014E0174B18201B689847314B0D
:100AD00001221A700CE0354BFC20997880008902C5
:100AE0000918002001F03CF9284B1860294B1C70B4
:100AF0002F4B264A1A6002F069FD2E4C2378052BF5
:100B000003D102F0B9FD0028FBD1FF23237000E0E0
:100B1000284F3378002B00D053E70E4A1370E5E4DA
:100B2000900E00200C020020C00F00204001002089
:100B3000080200207C130020AE010020AF0100203D
:100B4000B0010020B3010020660200200413002041
:100B5000200E0020EF00002064010020F40100209E
:100B6000140200203A01002049000020F200002079
:100B7000EE000020F3000020EC00002038000020F0
:100B8000FFF8FFFF74130020241B0020CC0300207B
:100B900008540000610F0020980000203810002049
:100BA000ED0000201A010020C85400002800002099
:100BB0006C1A0020E812002010B504F04DF9054C25
:100BC00000202368984704F06FF9236801209847B4
:100BD00010BDC0460C02002008B502F0A3FD802322
:100BE000DB059A6C01210A439A6402F017FE08BDE6
:100BF00010B54B4B1B78002B08D04A4B1B6898470D
:100C000001F086FF02F0D0F902F00AFD464B022106
:100C10001A6880248A431A601A68E405A168A260F1
:100C20001A6808218A431A601A68A168A2601A68C3
:100C300004218A431A601B68A268A360384B1878A5
:100C40003A4B1B78002823D0002B03D0002005212D
:100C500003F078F8226880235B0213432360226844
:100C600080235B0413432360C046C046C046C04691
:100C700062B62F4B226813402360BFF36F8FFA20B8
:100C8000C00002F0DBFD22682A4B1340236015E010
:100C9000002B02D0062103F055F8274802F0CEFDC4
:100CA000264B1B78002B09D1254B1B78002B05D137
:100CB000244B1B78002B01D102F058FA1A4B022169
:100CC0001A680A431A6019688022D20590689160F8
:100CD0001D49C87E0821002806D018680143196004
:100CE00019689068916005E0186888431860196871
:100CF000906891601A6804210A431A601A68802378
:100D0000DB05996811489A6002F098FD044B1B7846
:100D1000002B03D00E4B13201B68984710BDC04614
:100D2000F00000209000002000000020EC000020D7
:100D3000FFFFFFFEFFFFFEFF40420F00F300002019
:100D4000F4000020ED000020C00F0020204E000025
:100D50000C020020F7B50C4E0C4C371C14370FE07A
:100D60003D1B142D00DD1425094B1B78002B06D0EC
:100D70000020E9B2221C0223009002F0F0FF641967
:100D8000B442EDD3F7BDC046EC1F0020441D002047
:100D9000EC000020F0B589B002F088FB02F06CFC9A
:100DA000011EFBD18C4B1B78022B03D08B484022B9
:100DB00004F01CFA8A4C8B4FE0888B4D05908B4ECB
:100DC000B8792978F37908414100D800181AC00091
:100DD0000131E0304843727961889040490104F064
:100DE00017F982B2E2800420D2B2052102F0A4F900
:100DF000FA792B788025ED05D21A07212B6C0A4051
:100E00007B4912020B4013432B646037B0783B7868
:100E10002E1CC01802F05AFF02F084FC3C786400DB
:100E200027E0B36C01221343B36402F0F7FC002CFB
:100E30000BDD6E4B6B4A9B7860321278013B9B1A3C
:100E40001B19DBB2337102F06DFC6A4B6A4FDD781F
:100E50000CE0013DEDB201213A88281C494204F022
:100E6000C7F86A011219654B9200D050002DF0D1DD
:100E7000013C631CD5D1624B1B78002B11D0594B20
:100E8000012060331978082300935E4B49005B7D95
:100E9000013101935B230293C9B2584A802302F0C7
:100EA00075FF002004904F4F3CE0504B8025987810
:100EB0003B1C60331B780024C01A02F007FFED05CD
:100EC00002F030FC454E25E0AB6C01221343AB64CD
:100ED00002F0A4FC4C490B785A00944208DA434AC9
:100EE00092780132D31A1B19DBB22B7102F01AFC73
:100EF000414B6A461B8807A91E32201C03F0D6FD11
:100F00006B469A8B338899B2914200D2131C33807E
:100F1000013402363C4803785B009C42D4DD0499DE
:100F200001310491394A049813789842BDDB02F0EC
:100F3000ADFA374B603739781E78364B01221D7871
:100F4000521A264B0020344C8C460CE01F8899889E
:100F500079185F8871436F43CF19BC4201DBBCB283
:100F6000101C013202339445F0DC204B61469A7824
:100F70001018C0B25870224B1B78002B08D04900C3
:100F800001310020C9B2154A0423009002F0E7FEA7
:100F90001B4B1B78002B06D0002001211F4A022387
:100FA000009002F0DCFE69461422521811880C4BA6
:100FB0001278D9800420052102F0BEF8094B0722DF
:100FC000D9798023DB05114009481A6C09020240D7
:100FD0000A4309B01A64F0BDF8000020721A00201C
:100FE00018020020041300203C01002038100020CB
:100FF000FFF8FFFF150E00203E010020FC0300203B
:10100000EC000020C00F00206413002063130020B8
:101010004C0000204B000020FFFF00003910002092
:1010200010B5274B1A68002A07D1264A12689B1A66
:1010300003D4254B1B68190122D5244802F0FEFB7E
:10104000204B1F4A1B68224CD21A224B01211A80C6
:10105000217000207C2202F08CFE2378002B03D02C
:101060000020092102F06EFEFFF774FE164B1A688D
:10107000110104D51968184A0A401A6000E0FEE719
:10108000134B1B78002B19D00F4C23689A0115D5F0
:10109000124A104B11881920198051885980918863
:1010A0009980D2880521DA800D4A12781A810A22A5
:1010B00002F05FFE22680B4B1340236010BDC04658
:1010C000441D00203C00002038000020801A06004B
:1010D000EC000020B21A0020FFFFFFF718020020EA
:1010E00038100020FFFFFFFDF0B585B00023ECE0D5
:1010F000FFF772FD7D4E3378002B76D07C4B1C7849
:10110000002C0AD1A022211CD2007A4804F06EF8EB
:101110007948211C0A2204F069F8784F3B781FE0D7
:101120007C781AE0764E013CE4B2728A291C201CBD
:1011300003F05EFF6E4E62013178724B5219002946
:1011400002D19200985008E091005B585200C01AFA
:10115000684BD15E814200DAD052002CE2D12B1CC8
:101160005D1EEDB2002BDBD1674B684D1C78684EDD
:1011700017E0634B013CE4B29A8A285D315D03F0CD
:1011800037FF5B4B634A1978A300002901D1D05087
:1011900007E0D3586200C01A574BD15E814200DA93
:1011A000D052002CE5D1524B1B78002B1DD05A4B4E
:1011B0001B78002B0CD0514B0522197800925B78DC
:1011C00003200193522302934A4A402302F0DEFD9A
:1011D000514B1B78002B08D04B4B032019787123FF
:1011E0000093454A052302F0BAFD4C4B1B78002BB7
:1011F00066D0424B80245F78494D023FFFB22406FF
:1012000016E03E490E78023EF6B20DE03C4B381C2B
:101210005A8A311C03F0AAFD844200DA041C85427C
:1012200000DD051C013EF6B2002EEFD1013FFFB2FA
:10123000002FE6D13B4F0426013EF6B2331C0C339F
:101240005B00FB189879D9792D4B5A8A03F08EFDF3
:10125000844200DA041C854200DD051C002EEBD11F
:10126000314B1C805D802C4B1B78002B04D0301C34
:101270000221542202F07DFD234B80251C78284E4C
:101280002D06224F0EE0224A013C1D4BE4B2385D90
:10129000115D9A8A03F06AFD854200DA051C8642D8
:1012A00000DD061C002CEED11F4B1D805E801A4B0A
:1012B0001B78002B04D0201C02216B2202F059FD68
:1012C0000A4B1A780A4B1A700123084E3278002A0A
:1012D00000D00DE7114A1278002A00D008E73178D3
:1012E000034A05B0012058401170F0BDF500002000
:1012F000F6000020E0140020FA120020150E002055
:1013000004130020FC0300208D0F0020190E002084
:10131000610200204C020020EC000020F7000020B9
:10132000FFFFFF7FC00F0020B21A002010B51D4B39
:101330001A781D4B51B2481C03D01C480078002875
:1013400004D000241C60A2420ED11EE0184A186886
:101350009268904201DA01301860012915D0124BD1
:101360001B68934211DB0124124B1B78002B05D024
:10137000211C0E31C9B2002002F0E4FC0C4AA3008B
:10138000D2580D4B1A60074B1C700B4B1968802309
:10139000DB055A690902120E090A12060A435A614C
:1013A00010BDC0464A00002088000020B301002084
:1013B000EC030020EC0000201400002008B501F030
:1013C000A7FB024B1B68984708BDC04614020020CB
:1013D000F7B57A4B01241A68794B002A06D1794A6D
:1013E0001468621E9441E4B2002C02D000221A60FC
:1013F00005E01A6874498A4201D001321A60734AC2
:10140000002313709C423AD1714B197800290BD0FC
:101410001978012249B2022900D10A1C6B49012521
:101420000A7000221A70C7E06A4B1978002905D0AB
:101430001C70694B012515701C70BDE0674B1D6861
:10144000002D07DD013D1D60012D18D11C60032317
:101450001370B1E0624A6349623212888A420ED048
:101460006149098891420AD3604A5548111C3831B4
:1014700009780068884202DB393212781A605B4BC7
:1014800001251A1C3A321078002800D094E0002C74
:1014900021D1574A48331B7812689A4215DB554BC5
:1014A0001B78002B03D0201C122102F04BFC524B66
:1014B0004E491A68493101321A6009788A4204DBC0
:1014C00000221A60414B02221A704C4A002313700A
:1014D000474A136036E0414B1860494B1B78002B9C
:1014E00030D0414D474B2A881A80474A12885A808B
:1014F000404B1B78002B03D00221192202F039FC4B
:101500003A4928880B1C0833DA8F3C4B904212D2A0
:101510003D4A1088324A6532127890420BD21B78CD
:10152000002B0FD1324B48311A6809788A4209DA08
:1015300001321A6006E001221A702D4A002313605E
:101540002D4A13602E4B01251B78002B34D12F4BD5
:101550001B78002B2CD01F4B1B78002B2CD1234E3B
:101560002B4BB71C1868331DD98FFF8FB31DDA8F33
:10157000F38F009703F02AFDF28F1A4B9A420CD09A
:10158000194B1B88834208DB1F4B1A88144B6533A9
:101590001B789A4201D3104B1D70002C0BD00E4BC0
:1015A0001B78002B07D00B4B01221A70002503E09B
:1015B000094A137000E00125281CFEBD7C130020A1
:1015C0002C010020B4010020FFFFFF7F3A01002022
:1015D0001B010020380100203901002028010020D3
:1015E00004130020FFFF0000661A0020C00F002037
:1015F0001C010020EC00002024010020200100201C
:101600001A010020B21A0020681A00206602002089
:101610004801002038B5002859DD022805DD0328DF
:1016200055D12B4B11221A7051E02A4B2A4C2B4DCD
:101630001B7802281BD1002B03D00020132102F0BD
:1016400081FB201C2649702203F092FD254B0021CE
:1016500029701A7D244803F0C9FD24490522244835
:1016600003F086FD234B0D201B6898471EE0002BDE
:1016700003D00020112102F065FB1F497022201CBD
:1016800003F076FD01232B70164B1C491A7D16487A
:1016900003F06EFD1A490B78002B03D01448052285
:1016A00003F066FD134B0C201B689847FFF784FA84
:1016B0000C4B4A331A78064B1A701B78112B04D145
:1016C000104B9A785A7002F02BFA02F063FA38BD88
:1016D000900E0020EC000020041300201A010020CE
:1016E000200E0020C00F0020FA000020DD5B00006B
:1016F0005C0F00200C020020C8540000BD5B0000FD
:10170000E25B000038100020F7B58023DB059A6CFF
:1017100001210A439A6402F081F8354B1B785BB2D1
:10172000012B62D1334A0021537D01914BE0314AB4
:10173000147D45E0304B013CE4B25A8A211C301C38
:1017400003F056FC2C49051C4B78002B0FD02B4A7C
:101750001378002B02D0135D5D4304E07201284B27
:101760001219D35C5D43274B1B685D432D13214B3E
:10177000DB7C002B19D0204B671C5A8A391C301C8B
:1017800003F036FC1C494B78002B0CD01B4B1A780D
:10179000002A02D17301DF19194BFB5C5843194B26
:1017A0001B68584300132D186D1072011219164B47
:1017B0009200D358019A1B0CED1AAA4200DA019547
:1017C000002CB7D1331C5E1EF6B2002BAFD10A4BF2
:1017D00001990533DB7F994207DB8023DB055A69DA
:1017E0000121120E12060A435A6102F007F8F7BDF2
:1017F0004A000020C00F002004130020FA0000203F
:101800003D590000880F0020FC030020F0B55D4B1F
:101810000722197A8023DB0511405B4C1A6C090200
:1018200022400A431A640121A02287B049421201D2
:10183000564803F0DBFC0121A0224942D200544863
:1018400003F0D4FCA02253480021920003F0CEFC08
:10185000514B00259F787F00FFB272E04F49EC1793
:101860000023CB5EDA0F9D425441E4B2201C02F00B
:1018700029F8002C67D1FFF7AFF9494B1B78002BF3
:101880000CD0484B032299780092DB780520019315
:10189000702302933F4A202302F078FA404B1B78D2
:1018A000002B0CD03F4B042299780092DB7801206A
:1018B0000193732302933C4A802302F067FA384B6A
:1018C0001B78002B03D00120722102F03BFA354A2D
:1018D000537818E0334A73011478059310E0013C03
:1018E0000599E4B20B19294A9B009B58023307D093
:1018F000301C211C00F060F8002801D00135ADB289
:10190000002CECD1331C5E1EF6B2002BE2D1274B2B
:10191000274E1C7811E0013CE4B2264B305D195D86
:1019200042015218194B9200D358023305D000F0EF
:1019300043F8002801D00135ADB2002CEBD1013FB6
:10194000FFB2FE2F8AD1164B1B78002B0CD0154B03
:10195000032299780092DB78052001931E230293DD
:101960000C4A202302F012FA064B0722DC7980236E
:10197000DB05224004491C6C12020C40144307B0E2
:101980001C64F0BD04130020FFF8FFFFFC030020DF
:10199000E01400204010002018020020EA1200206D
:1019A000EC000020150E0020064100408D0F0020A5
:1019B000190E002061020020F7B5821CCB1C920199
:1019C000D218364B5200D35A354A128B9A4203D959
:1019D000802252019B189BB24201324F5218940050
:1019E000E559A446304C9D4209D36646F351A456AE
:1019F000002C36D02D4F5200EB1ABB5231E02B4F4A
:101A00005600BF5F0197013720D0A65C77B2BC4675
:101A1000013708DA771CA754019F7D19AB420CD916
:101A20000236A65409E06746002F0FDD771EA75443
:101A3000019F7D19AB4200D2A654400141180222F9
:101A4000184B89005242CA50012025E04201521829
:101A5000A656013605D10026A654144C52005B1B35
:101A600013534201114B52185400E45E0E4B0134E3
:101A700002D09A56002A05D0420152189C5C65B2E9
:101A8000002D06DD400141185A5C002001325A54F5
:101A900002E0013C9C540020FEBDC04600400040D6
:101AA00004130020FC03002040100020E01400205C
:101AB000F0B585B0061C0127002808D1804BA02274
:101AC0001F788048311C92007FB203F08FFB7E4B61
:101AD0000122013F1A60FFB2ECE0FFF77DF87B497D
:101AE0004C7870E07A4B013CE4B20121DA8A201C88
:101AF000494203F07DFA754B01901D7861E074490D
:101B0000013DEDB24A8A201C291C03F071FA012E16
:101B10001AD1019A0023824200DD131A6A4A116821
:101B200000290BD06B49098809B28B4204DC6A4951
:101B3000098809B28B4201DA00211160610149195B
:101B4000664A49008B523CE0022E10D15E4B1A6867
:101B5000002A31D05F4A128812B2904204DC5E4AF9
:101B6000128812B2904227DA00221A6024E0544B05
:101B70001B785BB2013B9F421EDA63015B19574A37
:101B800059008A5E4F49121ACB5C934200DA131C4B
:101B90004D4A116800290BD04E49098809B28B4281
:101BA00004DC4D49098809B28B4201DA0021116039
:101BB0006101444A49198B5463015B19474A5B0030
:101BC0009852002D9BD1002C8CD1454B1C786DE098
:101BD0004449454A013CE4B20B5D115D3C4D6A4607
:101BE000D17301930121EA8A181C494203F000FADB
:101BF0006B460290D97BAA8A019803F0F9F9012E6D
:101C000018D102990023814200DD0B1A2E4A116877
:101C100000290BD03549098809B28B4204DC3449CC
:101C2000098809B28B4201DA00211160314A610052
:101C30008B523BE0022E10D1234B1A68002A32D07F
:101C40002A4A128812B2904204DC294A128812B23F
:101C5000904228DA00221A6025E0194B1B785BB20B
:101C6000013B9F421FDA244B224A19576500CB43A0
:101C7000DB179C46AA5E6346121A0B40934200DAB9
:101C8000131C114A116800290BD01849098809B2A0
:101C90008B4204DC1649098809B28B4201DA002123
:101CA0001160154A1355134B6200D052002C8FD18E
:101CB000013FFFB2FF2F00D00FE705B0F0BDC046D7
:101CC0004800002040100020CC030020150E00200A
:101CD000041300204000002042000020E0140020F7
:101CE0008D0F0020190E002061020020440000200A
:101CF00046000020FA120020291B002030B5802366
:101D00000B4D0C4C5B00013B1A06092106E050000C
:101D1000002A02DA2A1C424000E0021C0139C9B242
:101D20000029F4D199006250002BECD130BDC0469F
:101D3000B71DC104FC03002070B5031C0120404204
:101D40000022064C07E09E5C050E7540AD0065590B
:101D50000002684001328A42F5DB70BDFC030020BE
:101D600070B5074C0D1C23788602002B03D1FFF7BA
:101D7000C5FF01232370A9B2301CFFF7DDFF70BD42
:101D800098000020F0B5254B002018600122244B5C
:101D900052425A60234B85B01A1C0832D67F197DF7
:101DA000741E5A7B65426C410C1BA4180294029D60
:101DB0001D4C009225601D1C28352D785F7D6A1E04
:101DC000039757425741039AD21B6260012E0BD0F2
:101DD000588D009B002B04D0013103F067F920815E
:101DE00003E0490003F062F92081012D02D10023B4
:101DF000638106E00B4B597D988D490003F056F93D
:101E00006081084B029D5B8D69005800C01803F08B
:101E10004DF9054B05B0D8601861F0BD7C1300206A
:101E2000DC010020C00F0020740F0020F0B5294B0A
:101E300087B0587D1B7D011D0493274A00241CE0B8
:101E4000049E8D010536002303950596039FFF1818
:101E500002977D00575B5453059E039FF51A7D1929
:101E600001956F00D55BD453029F1C4E0025F5559C
:101E7000019F0133F555032BE8D1174D174E01395A
:101E8000DED2144BC41C1B7D02300022A401800151
:101E90000633111C03940490013B5C002F5B2A5312
:101EA0000398C4186700E85BEA53F15431551C1CD1
:101EB000403464002F5B2A530498C4186700E85B21
:101EC0000748EA531F1839703155002BE4D107B089
:101ED000F0BDC046C00F0020004000400020004080
:101EE0004020004013B51B4A1B4B111C643109787C
:101EF0001B784B4319499B090820095E8B4200DA85
:101F00000B1C111C4731097805324B43D27F9B11C2
:101F1000934200DA131C124A07201360114B1B680E
:101F20009847114B0E4C1B78002B07D01F230093B2
:101F300016200121221C052301F011FF80232168B6
:101F4000DB059869094A0905090902400A439A61B3
:101F500013BDC04604130020E80300204801002000
:101F6000EC1200200C020020EC000020FFFF00F02B
:101F700030B50D4B0D490733DB7F0A2500220AE0FF
:101F8000013BDBB2281C58430818041C80348830FD
:101F9000A280E2808280002BF2D1054A0B601360A0
:101FA00001235B42536030BDC00F00207C13002032
:101FB000B4010020F0B5A02293B000219200954812
:101FC00003F014F9944DB22200215200281C03F0B2
:101FD0000DF90F227F20FF21131C48339B00013A8B
:101FE000EB18D2B298711871D9715971FF2AF3D1D7
:101FF0008A4E8B4FB46801947B7DA34202DD01348D
:102000000194B460F368002B01DB013BF360844C66
:102010003268217D914201DD013232607268002A0E
:1020200001DB013A72607F4C019F07949F4200DA06
:10203000B3E2346873689C4200DAD7E0019B6F46D4
:1020400002333F799B010593099781E0764F013B6D
:10205000CA5B019F91B20391794302910399DBB26C
:10206000614368460691028207999A000892AF1868
:10207000CA8908990132C9184900181C00928C4677
:102080007A68029910308000281852187A600699F0
:1020900042686F465218AC443988079F42606046D8
:1020A0008030F981C788039AD719C780019F01370B
:1020B0000DD0611C0BD05A4A0199577D8F4206D032
:1020C000177DA74203D08788039AD7198780089F76
:1020D000F81840002818883000908788181C0C37A2
:1020E000BC4600994830624687008A80EF19042177
:1020F0007956019A914200DD3A718700EF19052166
:102100007956019A914200DA7A718700EF19062117
:102110007956A14200DDBC71800028180727C757F7
:10212000A74200DAC471089A0398D3185B00EB1831
:1021300080330827D95F884206DD69466A46098AE6
:1021400012791981DC729A727368013CA3424DDCEA
:10215000059FE21C3548B9180B5C102B00D9F3E041
:102160004900002B00D071E72F480F5A002FEBD009
:10217000E1B2119303230291049300219446049B3E
:102180002B48C25C2B48C05C099B9A18029B52B238
:102190001818009000236846C35602329201234863
:1021A0000333D3181A5C6846531E02700F2B15D8E0
:1021B000002000290DD052B291420AD0002301E044
:1021C000914206D00133DBB211A8C15C181C002972
:1021D000F6D169460A7811A90A540978049B002BA4
:1021E00000D1B6E0013BDBB20493C8E7019CF36881
:1021F000013C0194A34200DC1BE78623EB5A084E06
:10220000074F767D002405963F7D002602970194B6
:1022100000275AE04010002068020020081A002021
:10222000C00F002048010020004000400020004076
:10223000A4520000A8520000AC1900948C342088ED
:102240000C21049402F0E4FE049A0199009B6C189E
:102250001080863360680022995EC001009102F010
:1022600025FF636C60600099D80102F01FFF606475
:10227000CB4823181A78059851B2884201DD013203
:102280001A709221490063181A7851B2002901DBB3
:10229000013A1A70C34A0298A3181A7851B28842B8
:1022A00001DD01321A702734FF3423785AB2002A34
:1022B00001DB013B2370019C013704340A36019491
:1022C000102F44D0AB1986331B883A1C002BB3D196
:1022D000079E2A601023F35E002B02D1079FFB8923
:1022E0003B82B1493D20085CB04A0090B04B3C2095
:1022F000085C1B7815680190002B15D0013BDBB200
:10230000AC4E59008C5B21B2002912DD181DAA4E7B
:102310004000865F1452002E10DD009FB94206DA9D
:1023200000218152002BE9D113B01560F0BD0135B9
:10233000E2E7191D490000275752DDE7019CA14241
:10234000F5DA00268652D7E700220A54FCE610226E
:10235000BEE76246002900D1F6E6452068440378CE
:10236000002B00D10DE1462169440B78002B00D1F0
:1023700003E1472068440378002B00D1EDE0059984
:102380008E488A181523135403210422B810029191
:1023900000928B49621C4B7D9446019A991A894B95
:1023A00062460393531E9A414B1E9941019B114073
:1023B00043430B93031C6343069181490C93097DAE
:1023C00083B29C46039A009B0891D25C40420F90D6
:1023D00004980A92002311A9CB5C0130013B5BB247
:1023E0009A0004920E90A818049A191CD3185A0047
:1023F000049243680B9A1031890069189B18436056
:102400000C9A4B689B184B60049B0EA9EA18131C8E
:10241000883304920D938032D0880490049B08780E
:10242000191C614404916B461021CB5A0199D38049
:10243000013108D0069B002B05D00899A14202D09B
:102440009188614491800D9B0F999A880A9B7F180F
:102450000D999A188A80029A031C9042BBDB11AB3B
:10246000195C013949B206910B1C89008C46019810
:10247000391C6143784308910699049060462A18F4
:10248000081C604440000A900499506810339B0077
:10249000EB184018506008995868BFB2401858604F
:1024A0000A98019A29188031CB88FB18CB80013219
:1024B0000CD0631C0AD04248019A437D934205D058
:1024C000037DA34202D08B88FB188B80069F039864
:1024D0003B1C63445B00009FEB188833C15D9A8806
:1024E000029F8A189A80002F00DC2DE6013704979E
:1024F000009F01230137002106979C46009F58B298
:10250000874224DD11AA515C421C0139C9B24F0136
:102510000397089307E02C4F02983B54069F101C2A
:102520000132BA4212D011AB185C039F0138C0B21D
:1025300043013F1802975F1863468842EBD8224850
:10254000C355069F101C0132BA42ECD1089B049877
:10255000191C01338342D1D1F6E5032103230091F5
:10256000059816498218113353540099381C0A1CD7
:10257000013A029202F09AFD0BE70220022300903A
:10258000EEE70598122382180C4813540D480022D8
:10259000012302920093039063E700232FE6C046D5
:1025A000250100002701000004130020B4010020D1
:1025B0008D0F0020FA120020C801002000200040EA
:1025C000C00F00204E00002040100020F0B5431C3A
:1025D0008DB0DBB209930A23151C1A1C4243964F97
:1025E0000E1C7343BA1880320392041CFB18062198
:1025F000505E80330590049306229A5EA300FB1878
:102600000793B300FB185B68079980185343089041
:1026100006924868059A08995043181802F046FD3A
:10262000079B00B25860231C10339B00FB180793D4
:10263000331C10339B00FB185B68069807994343D3
:10264000059A486808995043181802F02FFD079B17
:1026500000B25860201C483080003818291C042221
:10266000043002F085FD0498039A03890821515E25
:102670001AB2914206DA039804990381CB7AC372A5
:102680008B7A83720A22111C614372437918BF1836
:102690003A1C803290880B1C80338446988888319D
:1026A00060449880D08888378446D8886044D88031
:1026B000B8888B88A446C3188B8000219180F2B221
:1026C000101C013040B20590059F6001381803923C
:1026D0000B1C5A4A06900EE0069C059F10197401C7
:1026E0003C191419C75C0494E45C2743049CC75448
:1026F0000020E05401330131039FC9B2C81940B230
:102700000F28E9DD64466001911900238218AC4668
:1027100011E0A34205DA881B055D0F782F430755AA
:1027200005E0A34203DD0D78D05C2843D05400209F
:10273000087001332031B342EBDB65462878A446AC
:1027400041B202310C1C61E0AF78A11E7BB2A20144
:1027500003330B91069207904FE0D81E06990A901A
:102760003748CA18125C6946013AD2B20492102066
:102770004256112A3EDD012252420021079803925F
:102780000591042202932F49013AD2B28B560B993C
:10279000CB18023308932C4B0A999B56C918033166
:1027A000079108998B0107995B182549CB5C591E45
:1027B000C9B20F290FD849B2614501D0B1420AD13F
:1027C000039B013303D0039B8B4202D103E00391AF
:1027D00001E001210591002AD5D1059A0790029BBD
:1027E000002A07D0069869461022525C1449C01886
:1027F00003900A540137FFB20133032169567AB2BC
:102800009142AADA079801340130C0B20122AA56D7
:1028100043B29A4298DA2F7864467BB2023303932C
:1028200054E0AB78002258B2410006900748A44615
:10283000091808912CE0C0466802002040100020D2
:1028400000200040A4520000A8520000B21A00204C
:102850000699039C0331891804910498A401201857
:10286000494905940790445C013C64B2B44202D1EA
:1028700009AC24780C54049C059801330019049089
:10288000085C089C5100611840B24880DBB20132FC
:10289000E9785CB248B28442DADD3C4B64461B788E
:1028A000002B0ED0AA783A4B891A52B2013200207E
:1028B00001315200D2180090C9B20720052301F05F
:1028C0004EFA039901370131FFB203910122AA5652
:1028D0007BB29A42A5DA2E4F631C3B80731C7B802F
:1028E0002A4B1B78002B04D0072002210C2201F078
:1028F00040FA284B4834A4001C190422A2563A80FE
:102900000522A2567A800622A256BA800722A25633
:10291000FA801E4A1F1C1278002A04D007200421C6
:10292000002201F026FA4836B600BF190423FB56F0
:10293000174C23800523FB5663800623FB56A38098
:102940000723FB56E380114B1B78002B04D0072094
:102950000421002201F00DFA0023EB56238001230D
:10296000EB5663800223EB56A3800323EB56E380F0
:10297000064B1B78002B04D007200421002201F015
:10298000F8F90DB0F0BDC04600200040EC0000207A
:10299000B21A00206802002010B50B7800240457FA
:1029A0005AB2944200DD03704B78012404575AB2A6
:1029B000944200DA43708B78022404575AB294424E
:1029C00000DD8370CB78032141565AB2914200DA80
:1029D000C37010BDF0B58BB000240A236343464892
:1029E000C318803304215A5E002A00D17DE0DF7ACB
:1029F0009B7A0293029A013B02329201079270E0A5
:102A000002337A1C03939B017E1E0692049364E0BA
:102A1000049AF01C394B00901118CD5C6DB2013D49
:102A20000F2D59D8AC4257D0354B4900C85A0A220D
:102A300069466243C88230498C466244803208212C
:102A4000525E01922F4AD18D019A904244DB079841
:102A50005143844600988911844460464200D25A0A
:102A6000914239DA0498FA1C82185200D35A9942DA
:102A700032DAA54202DA231C2C1C1D1C2B1C1E4919
:102A800048339B00CB18211C1B4A483189005B68E6
:102A90008918043109A80993FFF77EFF0A226243CF
:102AA00008216846085A1449174B8A1818805F8015
:102AB000803212899A806A46D28ADA80134B1B7858
:102AC000002B04D007200421232201F052F9201CFE
:102AD000291C09AAFFF77AFD0236069B9E4297DD64
:102AE000039B029A013293428ADD01340F2C00DCF1
:102AF00073E70BB0F0BDC046680200200020004024
:102B00000040004004130020B21A0020EC00002016
:102B100008B500F003F800F02DF808BD70B50021ED
:102B20000A220E4802F062FB0D4B00220733DB7FC6
:102B30000C490A25101C0DE0013BDBB22C1C5C4348
:102B40000E198036B280084E3419A285074CE05425
:102B5000074CE054002BEFD10B6070BDA4010020A6
:102B6000C00F00207C130020940E0020F0120020E3
:102B70005C1A002070B50C4C012300255B42636099
:102B8000291C0A2625600522084802F02FFB291C73
:102B9000321C074802F02AFB201C291C321C08307A
:102BA00002F024FB70BDC046B4010020291B0020A8
:102BB000680F00204943404340187047F0B5A24ACF
:102BC000A24BD18987B0198012895A80A04B1B78FB
:102BD000002B04D016200221652201F0CAF89D4B7B
:102BE0001A689D4B0733DB7F934200DD131C9B4A21
:102BF0000121136049421022994802F0F7FA9948DE
:102C0000FF21402202F0F2FA934B00250733DB7FCD
:102C10000293954B1B680393944B5B6B04938D4B12
:102C20001F680597924F009749E0009F0023FB5EC5
:102C3000002B40D08F49AB00CF58039A049B97409C
:102C4000FF188D4B6A000126D318764200240193A9
:102C500021E00A2363437F49CB18803304229B5E23
:102C6000002B16D0A300CB18019958688B88794A9D
:102C7000C01A231C10339B00D318019A5968138B78
:102C800000B2C91A09B2FFF795FFB84201DA261C53
:102C9000071C0134E4B2059B9C42DADB711C0AD0AC
:102CA0006F4B70499857B200013002D08858B84233
:102CB00001D98F509D55009F01350A370097029F1B
:102CC000EBB2BB42B1D30024624D34E0644F3E5DB1
:102CD00073B201332DD0A200604FF6B20192AA1850
:102CE000B10052687B185A60221C1032331C9200CB
:102CF0001033AA1852689B00FB185A600A22101C55
:102D00000091111C70436143381869188430843174
:102D100002F02EFA231C48339B004836EB185B6800
:102D2000B600BF197B604F4B019FFA58514B009F73
:102D3000FA500134E4B22B689C42C7DB00244AE01D
:102D4000474A1257013244D10A2262439B1880330A
:102D500004215B5E002B3CD0484F494AF87F444B2E
:102D6000002533E00027DE5F002E2CD10027D65F40
:102D7000002E28D1374F3A4BA200384EBA181955B9
:102D80005268AB00F3185A60221C10322B1C9200C0
:102D9000BA18103352689B00F3185A600A22101CAC
:102DA000111C68436143301879188430843102F073
:102DB000DFF9231C48339B004835FF18AD007B68C2
:102DC0007619736005E001350A330A32E9B28142AF
:102DD000C8D30134E4B21F4B1A689442B0DB1E4BD7
:102DE0001F480733DA7F274BFF241D1C1035197845
:102DF000914202D2415C197000E01C700133AB4279
:102E0000F5D1214900230A200B60144C191C061C23
:102E100012E0013AD2B2051C554365198835AD88D8
:102E2000A94200DA291C351C554365198035042751
:102E3000ED5FAB4200DA2B1C002AEAD1124A07B040
:102E400051601360F0BDC04648010020B21A002056
:102E5000EC00002068020020C00F00207C1300203E
:102E60004C0F0020181A00205400002004130020EA
:102E7000C00E0020C0120020900F0020C70F0020BD
:102E800000140020D003002020020020F0B5244BC5
:102E90000A2207339446DB7F2248234A234937E03E
:102EA000013BDBB264465C4305192C26AD5F002D67
:102EB0001FD0141980340427E45F002C19D09C0023
:102EC000141965685C0007190426BF5F0C19EF1B15
:102ED0007F107D19A5801C1C1034A400141965688E
:102EE0001C1C0C346400275EEF1B7F107D190D53F2
:102EF0000EE09D0055196D685C000C19A5801D1C25
:102F00001035AD001C1C55190C346D6864000D5350
:102F1000002BC5D1044B1A68044B1A60F0BDC046A3
:102F2000C00F0020940E00207C130020900F002082
:102F300008B5104B1A78104B002A09D00F4A1049D7
:102F4000483212884968914207DB01221A7004E076
:102F50000C4A1268002A00D11A701B78002B07D087
:102F6000094B1B78002B03D00020372100F0EAFE2C
:102F700008BDC04666020020B101002004130020F5
:102F8000200200207C130020EC00002038B5041C37
:102F9000081C002A07D054435843D11820184D105C
:102FA000401902F083F838BD10B5002140220848CE
:102FB00002F01CF9074B00241C70074B01221A7009
:102FC000211C1422054802F011F9054B1C7010BD9C
:102FD00064010020B201002058000020DC01002024
:102FE000B3010020F7B5354D354F041CBA8D696823
:102FF0000068C9015043009202F058F80A23EE5EBF
:103000002968361826600823EA5E606801927B8D85
:10301000C901584302F04AF8019A10182A69606001
:10302000964207DA35373B78B61A5E43B6119219E5
:1030300022600CE0009B9E1B964208DA35373B78F5
:10304000B61A5E43009BB61192199A1A2260EB6879
:103050001B4A984208DA111C33310978C01A4843D8
:1030600080111B1863600CE0518D081A984208DA31
:10307000151C34352D78C01A684380111B18C91AE5
:103080006160131C313321681B78994205DD928DF4
:10309000D01A814202DB013AD31A2360084A6168E0
:1030A000131C32331B78994205DD528DD01A8142B0
:1030B00002DB013AD31A6360F7BDC046740F0020EB
:1030C000C00F0020EFF30880704700BA704740BA85
:1030D0007047C0BA704770B5002816DAC0B20F2327
:1030E0000340083B124A9B089B009B180322104098
:1030F0009040FF225D68141C84408901A5430A406A
:103100008240281C1043586011E003248208094BB8
:103110002040C032A0409200FF24D558261C864093
:103120008901B5430C408440281C2043D05070BD19
:1031300018ED00E000E100E070B50F248023DB050E
:103140002040DE69050407480C4030402843D86120
:10315000D869054924050140013A2143D2B2D96119
:10316000DA7770BDFFFFF0FFFFFF0FFFF7B5802399
:10317000DB0598491A680E2000221A60086008686A
:103180009C6898609448954E02600068DC68D8603E
:10319000FE249348E401046000681C6918615869C2
:1031A0005A6198699A61D869DA61186C8020C00107
:1031B0001864586C5A64986C8A489A640260A0201B
:1031C000C00584688260186C874A042402401A642F
:1031D0005868864A02408020C00202435A605A68FA
:1031E0008020C004324002435A6018688022920551
:1031F00002431A607E487F4A10607F4A106820436D
:10320000106010680224A04310607C4AD27E002A1D
:1032100006D10A68082082430A600A6899689A60A1
:1032200000F0B8FC764B8024E4050533A169DA7F11
:10323000744B12040B401343A36100F01DFD724B4D
:10324000C022520004260125022008219D5010278B
:1032500098509E502020995040219F50985099504E
:10326000C02292009F58FF208743C02007439F50F1
:103270009F58381C654F384098509858071C644830
:103280000740019780273804019F38439850985889
:1032900007023F0A27439F50C12292009858071CFB
:1032A000FF2087430F439F509F585848384080273E
:1032B0003F02384398509858554F38409850554AD7
:1032C00010693043106162B6082202201E601D6042
:1032D00018601A60504B20201027DF67D867D96725
:1032E00000F0D0F9454BA169187D3F22063010400F
:1032F00091430143A161597D8819294041180A4031
:103300001102A069454A02400A43A2619B7C002B3E
:1033100027D0334B31491A680227AA40520E154371
:103320002A061D682D480D4015431D601A68216945
:1033300022611A685200520E17433A061F6807406E
:1033400017431F601A68216922611A685200520EE1
:10335000164332061E68064016431E601B6822692B
:10336000236100F0DDFB1E4BEE201A68C0012C49E2
:1033700010401A680A4002431A6018688022D20579
:10338000146910611C681868A404A40E2402084083
:10339000204318601868146910611868BE24E4019D
:1033A00004401868084020431860186814691061C8
:1033B0001C68DE20C00120401C68214001431960C8
:1033C0001B681169136100F0C3F8164800F036FA63
:1033D000F7BDC0460000002004000020FFFFFF8072
:1033E0000C00002008000020FFFF7FFFFFFF80FF90
:1033F000FFFFFF0014E000E010E000E0C00F00203D
:1034000004130020FFFF00F000E100E0FF00FFFFD9
:10341000FFFF00FF00ED00E004E100E0FFC0FFFF60
:10342000FF80FFFFB80B000070B5134B0E1C1B781C
:10343000041CAA2B1DD1114B00255D57104B0020F9
:103440001856104B2A181B785BB29A4211D1231CD4
:10345000CC3B401B5843252101F028FE0A4B45195F
:103460009B7864195B199B19E4B2FF2B01DDF443CF
:10347000E4B2201C70BDC046287C0000297C0000FE
:103480002A7C00002B7C000038100020064B7F2295
:1034900019688023DB05186C013990431140021C28
:1034A0000A431A647047C046640F0020074B01218D
:1034B0001B7F7F225BB299408023DB05186C0139AA
:1034C00090431140021C0A431A647047C00F002049
:1034D00030B51A4A1A4B11881A4CC9188023DB05DB
:1034E00089B2188C1984598C002159845088164D42
:1034F000011989B29A8C9984421EDC8C92B24419CB
:10350000DA84A4B21D8D1C85104C001980B25C8D2C
:103510005885988D9985D88DDA85188E1986588E9C
:103520005A86988E9986D88EDA86188F1987588F82
:103530005A87988F9987D98FDA8730BD1802002073
:10354000FF070000FF030000FF050000FF0100006F
:1035500010B51B4B1B495A7C1B4B002A15D01A680F
:1035600004205204520E0243186812020140114313
:10357000196019688022D2051069116118687B21D1
:10358000084019687F24A14314E01868042240060B
:10359000400E10431A687F24A24302431A60186841
:1035A0008022D205146910611C68F620C0012040F9
:1035B0001C682140014319601B681169136110BD2B
:1035C000C00F0020FF80FFFF0C00002000B572B686
:1035D0000F4B01221A700F4B5A7C0F4B002A07D059
:1035E0001A68F621C901114018680C4A024005E02A
:1035F00019687B2211401A687F2082430A431A60AF
:103600001A688023DB0519691A6162B600BDC046DD
:103610008C000020C00F00200C000020FF80FFFF66
:1036200000B572B6104B00221A70104B5A7C104B2A
:103630001968002A08D049040422490E1143186869
:103640000C4A0902024006E049060422490E1143D1
:103650001A687F2082430A431A601A688023DB05B8
:1036600019691A6162B600BD8C000020C00F0020ED
:103670000C000020FF80FFFF014B18787047C04608
:103680008C00002010B58023DB05196C8022D2014C
:103690000A431A641B4A80211068490001431160E3
:1036A000126899689A60196C802212020A431A649F
:1036B000196C154A0A401A64144A7F21107B144A77
:1036C0000840146813490004214001431160106848
:1036D000A021C9058C68886014680F4820408424A4
:1036E000E4052043106010688C68886014680B48FB
:1036F00020401060126888688A60196C084A0A4085
:103700001A6410BD00000020FF7FFFFFC00F0020E3
:1037100008000020FFFF80FFFFFFFF80FFFF7FFF0B
:10372000FFBFFFFF044B01221A708023DB05996C59
:10373000914399641A7070471000002070B5144BC3
:1037400001221A70134B144D5C7D197D0234033134
:103750000B1C0022A401114E98190270E018013BC5
:1037600042550D48012BF6D10A4B00225B7D0233F6
:1037700006E00B4E9B019D195B182A70C254231C56
:103780005C1EF6D280230122DB055A7070BDC04654
:1037900011000020C00F0020002000404020004009
:1037A0000220004000B5064B72B61A78002A04D0F9
:1037B000C046C04662B630BFF6E762B600BDC0463E
:1037C0001100002038B5094B09495A78DC7851437B
:1037D000084B051CC918084801F068FC064B291C59
:1037E00001345843A14001F061FC38BD381000207D
:1037F00044FEFFFFFE24020040420F0000B5064BCE
:1038000072B61A78002A04D0C046C04662B630BFED
:10381000F6E762B600BDC0461200002000B5064BB8
:1038200072B61A78002A04D0C046C04662B630BFCD
:10383000F6E762B600BDC0461000002070B513491F
:10384000134B04241960134B134D1A6822431A605A
:103850001A680224A2431A601A68012422430F4CFA
:103860001A60002222600E4A11602E78ED787043B3
:103870000135E840091A1160206811688842FBD2BE
:103880001A6801218A431A6070BDC046FFFFFF001D
:1038900014E000E010E000E03810002018E000E044
:1038A0001002002000B50023054A984201DB537F37
:1038B0004343127F013052B290401818401800BDA7
:1038C000C00F0020F0B58DB0444B0B901D78002D3B
:1038D00013D09D7B002D10D0414B99785A78987861
:1038E0005B78C01A6B08914201D9C01801E0DBB2C5
:1038F000C01A291C01F0DAFB051C3A4B9E78013EE8
:10390000002761E0391C301CFFF7CCFF02903548DE
:103910003249C078314A0390497C324B0491127885
:10392000304805925B782D49069300782B4A079022
:10393000097B01340891527B790109922A4A89193D
:103940008A180A9400230192AC4636E00021741CC8
:1039500028D0019C5801215C00900498059C4118D6
:10396000C9B2002C09D02520051C7D4358431F4CAB
:10397000AD192C19205C604409180B9CC9B2002CAD
:1039800010D00698824202DA079CA64201DB099811
:1039900003E01748089C805D20184118009C01989E
:1039A000C9B201551348029C805C620140B24010CC
:1039B0001018114A81540A981B180399DA198A427F
:1039C000C4DB01376546FFB20C4A1C241457A742DA
:1039D00098DD013EB31C93D10DB0F0BD041300205F
:1039E00038100020150E00204010002080550000E7
:1039F0001D590000FC0D002000100040C00F0020E9
:103A0000F0B5C31C8BB0DBB2061C059100270793F1
:103A10006AE03A4C002009902680391C301CFFF7E0
:103A200041FF0C2203906946515A354B6180DB7887
:103A3000344C410101200693334A0023091984467E
:103A40000EE0505DAC1C40B24010E4B20818847225
:103A5000505D644640B284400498234301302D18E1
:103A600006988542EDDB294C09932378002B04D07E
:103A700000200221692200F07CF92378002B06D077
:103A80000020012109AA0923009000F068F9039C95
:103A90001F4862011318596809996C4659601C2027
:103AA0001C49045D52181471059C002C17D01A4A49
:103AB000517B1A4A00290AD0701C915D105C0122CA
:103AC000141C49B240B28C408240A21804E0925DBE
:103AD000012152B291400A1C19681A6002E0059C4B
:103AE0001A681C600137FFB20B4B3D1C1B7F5BB299
:103AF00004939F428DDD0BB0F0BDC046B21A00208A
:103B0000150E002000100040FC0D0020EC000020ED
:103B10001810004010100040C00F0020E0190020D5
:103B200038B5174C607800F0D1F88023DB05E178D8
:103B30005A68C907520052080A435A602079032282
:103B40005D68104910408003294001435960607945
:103B50000D495D6810400003294001435960A07978
:103B60000A495D6810402940800201435960E179AB
:103B700058680A401102064A02400A435A6038BD9A
:103B800038100020FF3FFFFFFFCFFFFFFFF3FFFFD5
:103B9000FFFCFFFF70B5304B304A196880240A40A3
:103BA0001A601A68E4052E4DA168A260A97A032262
:103BB000186811402B4A890402400A431A601A68A7
:103BC000A168A2601968802252030A431A601A6829
:103BD000A168A260697A18680726234A314002402A
:103BE00049050A431A601A68A168A2601968A022F0
:103BF00009010909D2050A431A601968F022120561
:103C00000A431A601B68A268A360FFF73FFC636C5D
:103C1000164A042013436364E3690F22934302228C
:103C20001343E361E369F022934330221343E361DA
:103C30000F4B05211A79013AD2B262779A79FFF7D0
:103C40007BFAFFF745FCEB790A4A1E403302266CEB
:103C500016401E43266470BD00000020FFFFFCFFDD
:103C600004130020FFFFF3FFFFFF1FFFFFFF0F0004
:103C700018020020FFF8FFFF38B5114B00211B6828
:103C8000013B08E00F4C5801092200198418A17269
:103C9000013AFBD2013B002BF4DA01204042002123
:103CA000FFF7AEFE0024084D05E0201C0121FFF7C0
:103CB000A7FE0134E4B2AB78A342F6D838BDC046C3
:103CC000640F002000100040150E002000B5802178
:103CD000C9050B795A1ED2B2984209DD00E00B717A
:103CE0000133DBB28342FADD04E00A71013AD2B259
:103CF0008242FADA00BDC04608B50C4A0C4B0D49A9
:103D000001E001CA01C38B42FBD30B4B0B490022DC
:103D100000E004C38B42FCD3FFF7D4F9084B002228
:103D200000E004C38342FCD308BDC046A05300009A
:103D3000380000208400002088000020301B002074
:103D4000441D00201FB501235B4200930023029114
:103D50001A1C191C019300F019F805B000BD1FB51D
:103D600006AC2478009300230193029400F00EF82F
:103D70001FBD1FB50523009302920023024A019341
:103D800000F004F805B000BDB21A0020F7B5151C0C
:103D90000193002208AB9A5609AB1B780C1C0093C8
:103DA0000AAB1978244B01261B688640334241D068
:103DB000224B234E501C09D1224A032010701A684E
:103DC00080203240400002431A6016E0002C2DD0C3
:103DD0001C480527077018688027BF00304038430B
:103DE00018600F201F680240174812033840024332
:103DF0001A606A461278DC701A71104B9970FFF7DE
:103E0000E5FBFFF739FC0028FBD1002C0ED00F4F4B
:103E1000041C3D60FFF7DAFBFFF72EFC0028FBD106
:103E2000019B00980134ED188442F2DB034B1A68C1
:103E300016401E60F7BDC04638000020241B00203D
:103E4000FFF8FFFF74130020FF0FFFFF6C1A002024
:103E5000F7B54F4B1B78002B03D000204F21FFF705
:103E600071FF4C4A012313704B4A4C4E13704C4A5D
:103E700013704C4B00225C7D019239E0013CE4B2AE
:103E80000121F28A201C494201F0B2F8464B62003F
:103E9000D052F28A738A071C9A4202D280235B01B5
:103EA000C718404B1D7D21E03C4B013DEDB25A8AC5
:103EB000201C291C01F09CF83A4A0090D37C002B6E
:103EC00009D0364B691C5A8A201C01F091F8009ADF
:103ED000101840100090009A0021BB1A019AD218C5
:103EE000019262015219314B9200D150002DDBD169
:103EF000002CC3D12E4B01980022995E01F0D6F818
:103F0000758B071C2B4C002D02D14023236009E048
:103F1000B18B681A8001791A01F0C8F86E2800DDAB
:103F20006E202060244B1D805F80194B1B78002B76
:103F300004D0002002215022FFF71BFF174B6425FD
:103F4000D87F5E789A79D97B1C4CDB796843002E48
:103F500009D042431748063300689940504301F0A6
:103F6000A5F8206004E05043994001F09FF82060DC
:103F70000A4B124CDA7B2068197C504301F096F80A
:103F80000021606014220E4801F030F9F7BDC046F0
:103F9000EC000020F80300208C0F00200413002008
:103FA00060020020C00F0020F61A0020FC03002051
:103FB000720F0020880F0020B21A0020000200209B
:103FC0004C020020F8B5324A537D47E0304A147D58
:103FD00041E0304B013CE4B25A8A301C211C01F014
:103FE00007F82C4A051C5378002B0FD02A4A137867
:103FF000002B02D0135D5D4304E07201274B1219C0
:10400000D35C5D43264B1B685D432D13204BDB7C4B
:10401000002B19D01F4B671C5A8A301C391C00F02A
:10402000E7FF1C4A5378002B0CD01B4B1A78002A50
:1040300002D17301DF19194BFB5C5843184B1B6805
:10404000584300132D186D107201164B121992006F
:10405000D1586D18D550002CBBD1331C5E1EF6B262
:10406000002BB3D1104B114D1C78114E0CE0094BB5
:10407000013CE4B29A8A285D315D00F0B9FF0D4B36
:10408000A200D1584018D050002CF0D1F8BDC04645
:10409000C00F002004130020FA0000203D5900004A
:1040A000880F0020FC0300208D0F0020190E002037
:1040B000610200204C020020F0B5254A85B0537DF6
:1040C000127D0192234A0132D27F029213E0039AB9
:1040D000013CE4B21619204BB500E858029900F0F3
:1040E00097FF1D4A00041D4BA85076000022F25293
:1040F000002CECD13B1C5F1EFFB2002B03D07B01D8
:10410000019C0393F4E7164B1B78142B04D0124B3D
:104110000833DA6F134B1A60134B144D1C780D4B98
:104120005A1CD67F5F780FE0013CE4B2A3005859D7
:10413000311C00F06DFF002F03D00D4A135D584372
:104140008011A3000004E850002CEDD105B0F0BDB3
:10415000C00F002004130020FC030020E014002006
:10416000900E0020280200208D0F00204C0200201D
:104170005C0F0020F0B5B64CB64D23780022A1B0FC
:104180002A70002B00D07AE3B34F3C78002C00D18A
:10419000DAE1B24CB24D1F941D95B24DB24E0023E0
:1041A000FF24EB812B826B616B602B606B812B8119
:1041B0003360B36000214022AC487460F46001F0C9
:1041C00015F80021AA48282201F010F81D9FFB7C59
:1041D000002B00D0F2E10020A64E7B7D0A90A64A7B
:1041E0001D9C12781F9D52B21992247D36681E9430
:1041F0006D8A1F9C0C9564781D9D0D941096ED7C26
:104200001F9E0E95199FB67F5A1E10231F9CDB1B05
:104210000F961A932123E356924D0B932423E35CCC
:10422000904E13932223E3562D6876691B931295C3
:1042300011968C4F8C488C498B4B8B4C894D3F8908
:10424000C9686D6880681B686468864E0697169119
:104250001C95159017931894D2B2768907920799F6
:10426000002714960997854DFF2900D191E00A1C7B
:10427000023292011E9B08924C01002B00D180E07B
:10428000013BDBB20899D81C0A1805905200525B1A
:104290000C9EB24202DA80277F01D2190D980028C5
:1042A0000BD077490878002800D07BE27549E018E8
:1042B000415C4A4310994A4312130E9E002E00D0CF
:1042C00073E2E018704E810089590F9F090C002F8E
:1042D00000D0B0E16D48E7188446521A91B27E00D2
:1042E0006746081CB953002A00DABAE10B9EB242B5
:1042F00006DB129F961BBF19119E1297013611966D
:104300006F4628370026BE5FB24200DC0699139E36
:10431000B24211DB159F079EB74200DA1596169F31
:10432000079EB74200DD1696179F9F4200DA17934B
:10433000189EB34200DA1893089FBC46059FBC4400
:1043400067467E00775B5F000A977053079E760092
:104350000596464EF65B464FB446059E8444BF5BC9
:1043600006910999C01989180A9F404E0991614622
:10437000F1533F4E059FF05306980A90002B00D052
:104380007EE7079B013BDBB207930799FF2900D02B
:104390006DE76E461827334CBF5B119D129A27813B
:1043A000226065611598304C169D179E189FA0607D
:1043B000E560676026601C982A4C14AD60606F460B
:1043C00028202E88C05B6681A0811F9C6D46282610
:1043D000E37A775F9F4202DD1E4E012333702C4B40
:1043E00009980027D95F00F061FE194C1D4D237814
:1043F000A861002B00D021E21B4EB268F3689A42FC
:1044000000DAABE131687068D31A091A013301315F
:10441000994200DAA7E10E4C1E4F1F4A2378C9B219
:10442000099711703980002B00D0CBE11B4E01237E
:10443000069633701A4D1B4E2C7800233370002CD7
:1044400000D127E1134F013CE4B209971F9D53E0CF
:10445000EC00002040010020F400002004130020A4
:10446000C00F002048010020081A0020721A002006
:1044700010100020880F00204D0000200040004058
:10448000FA0000203D590000FC030020E014002049
:10449000720F0020B21A0020E00300206602002004
:1044A0008D0F0020E80300206B78002B03D0C84B51
:1044B0001B5D5E43B611C74BA200D2582523EB5CAF
:1044C000120CB61A9E4202DB069801230370EB7AA7
:1044D0009E4202DDC04901230B70C04A1378C04AD6
:1044E000D6539E4200DA1E1CBC4F631E3E70DBB2E8
:1044F000002C00D1CEE01C1CBA4EBB4F315D3B5DA1
:10450000AA8A081C0791191C089300F071FDB74F87
:10451000061C3B7809986700C653002BC4D1089944
:10452000AA8A079800F022FC6A216B5E984203DC9D
:104530006C22AB5E9842B7DAAD4B01201B689847FE
:10454000002421B0201CF0BDAA4EAB4D1F961F9F2A
:10455000AA4E287831787A8A00F008FC6623FB5E40
:104560009842E9DC6823FB5E9842E5DBA44B1A78AD
:10457000002A00D1F9E02A78A24801324178D2B26B
:1045800057B201392A708F4200DA05E1327801789A
:104590000132D2B2012057B20139287032708F42F5
:1045A00000DAFCE0984F3A1C1D971832B97FD27997
:1045B0001C70964B297032701870EEE51D9D6C7D55
:1045C000002C00D1F9E0924F013C297DE4B209971B
:1045D000904E914F1F9D00E064466A8A201C00F0B7
:1045E00007FD1D9AA31C117D620194469B01CA1C04
:1045F0009B185B00DA5B0022DA536B788C44002B4B
:104600000BD0864B1A78002A00D04FE1844B6246CB
:10461000D35C5843336858430013621ED2B29446A9
:10462000099A6300D052002CD6D17E4D1D9C2D8955
:10463000637D0A95D3E57C4E4000305E199F1A9E3B
:10464000401870437A43784F12181211BC46521A20
:10465000E71891B27E006746081CB953002A00DBB8
:1046600044E61B9EB24203DC1C9F901B3F181C9724
:1046700014AE0020305E824200DB1499089F05983A
:104680003E18099F7600705BBF1A0020099770538F
:104690001491F2E5654C2378002B00D0D8E05948FE
:1046A000817807788C46B9421CD9C2785A49131CC4
:1046B000013BDBB2079208930025079B002B0DD02E
:1046C000FC1C089B00E0031C9A1C9201121952006A
:1046D000581E565AC0B25552002BF4D10137FFB2C2
:1046E000BC45EAD8474C654601356678E0784A49CA
:1046F000EDB20027002D13D0013DEDB2B042F9D943
:10470000AC1C331C06959A1C9201121901335200FD
:10471000DBB2555A57529842F5D8069D002DEBD181
:10472000434B1B78002B05D0424B01241B68002B08
:1047300000DC06E73D4E01243378002B00D100E772
:104740001D9F0523397D00937B7D03200193562314
:104750000293354A4023FFF719FBF2E6364F002358
:1047600006973B7066E6191C55E62848264C0178EA
:104770001D940A1C0C325200A218947901312C703D
:10478000D279C9B232700170052900D005E5012245
:1047900032702A701A7000E51B4C1D94FDE41A4D0E
:1047A0001D95FAE4C95C4A4384E5079F18487900DF
:1047B000465E42529219521083E50027154E0A9721
:1047C00000230CE5042001216722FFF7D2FA2DE631
:1047D0005C0F00204C02002040010020E803002074
:1047E000FA120020190E002061020020F4000020BF
:1047F0009400002004130020600200208C0F002091
:10480000F8030020150E0020C00F00201E1B002002
:10481000B21A0020880F002000400040FA0000205B
:104820003D59000048010020E0140020EC00002069
:10483000F900002064010020660200202A1C762373
:1048400000931832032001210523FFF788FAD3E5EE
:10485000184D052329780120174A5A240094FFF7A0
:104860007EFA164E3378002B00D118E76D23297895
:1048700003200093124A0523FFF771FA0FE7114B4B
:1048800004245D7819780120802300940E4A512475
:1048900001950294FFF77AFA084E3378002B00D185
:1048A00072E401207221FFF74DFA6DE45B5C58431E
:1048B000B0E6C0468D0F0020B21A0020EC000020A8
:1048C000FA120020150E002006410040F7B50B4CEF
:1048D0000B4D24680194002403E0765B8018A41932
:1048E000C918861CB601B446CF1C67447E00775BAE
:1048F000BC46019FBC45F0DC201CFEBDEC12002034
:104900000040004070B50E1C0499051C0B4C00299A
:104910000AD0023203339201D2185200A35AA05A8D
:10492000584300F0C3FB011C0235AD010336AE193C
:10493000760089B2A35BA15370BDC0460040004021
:10494000F0B5564D8BB06C7D6F4603940C222C7DD8
:10495000D35DFF267B77FB775149042208A83E767A
:104960007E76BC76FC763E77BE7700F001FC09A827
:104970004C49042200F0FCFBAB7B002B23D0039CB2
:10498000002C20D0013C201C002100220123FFF735
:104990009DFF0121221C061C4942201C0023009679
:1049A000FFF7B0FF297D01230139201C00225B4263
:1049B000FFF78CFF297D221C00904B1E201CFFF767
:1049C000A1FF013CDFD2EB7B002B24D02C7D002CFF
:1049D00021D0013C211C012200230020FFF776FF9B
:1049E000061C0120211C231C404200220096FFF7D8
:1049F00089FF687D0122211C524200230138FFF704
:104A000065FF6B7D211C00905A1E181C231CFFF7AC
:104A100079FF013CDED2AB7B002B3DD0EB7B002B42
:104A20003AD0032707A909AACE57D35706ACE557B2
:104A3000F418291C201C00220394FFF747FF291CAF
:104A4000041C039A301C2B1C0094FFF75BFFB31C63
:104A5000EA1C08A99B019B18CA575B00AC181249B5
:104A6000039304945C5A301C049900230594FFF7C7
:104A70002DFF291C041C321C049B301C0094FFF7E2
:104A800041FF039A084B0599D45AD35A6418064B30
:104A90006408D452013FC5D20BB0F0BDC00F002056
:104AA0007C5200008052000000400040F0B58BB006
:104AB000051C089109920793411C18D1464EF478C1
:104AC000013CE4B210E00121201C079A494200F0A9
:104AD0008FFA424B6200D052414AE3019B181A8878
:104AE000013C00221A80E4B27378A342EBD93D4B1B
:104AF0003D4F00265C7D05960496039743E0013CFC
:104B0000E4B26B1C06D063015B19384A9B00D35A90
:104B1000069303E0314963005B5A06930121494241
:104B2000079A201C00F064FA6A4618218B5E30490F
:104B3000C31A62005352D9175B184B40F618691C10
:104B400005D061014919294A8900885007E02349A5
:104B500050522349E2015218118800211180E207C6
:104B600007D50399994200DD0393049A9A4207DB23
:104B700009E09F4200DD1F1C0599994202DB02E01B
:104B8000049300E00593002CB9D101350CD1194BE9
:104B90001B78002B08D0104B0120D9785B230093A1
:104BA0000E4A0423FFF7DBF8089A04991680039A4B
:104BB0008B1A0599CF1B9F4200DA1F1C099A0D4BD7
:104BC00017801B78002B05D0064B0A20597D5C22EC
:104BD000FFF7CFF80BB0F0BD150E0020F61A00203D
:104BE00004410040C00F0020FFFF0000FC03002034
:104BF000B21A0020EC000020F0B54F4B89B05A7D6E
:104C000005921B7D4D4A06934D4B92695A331B7892
:104C10005BB29A40002A00DC01224A4B00255D5716
:104C2000059C4949494EAD00944611E0079F013B60
:104C3000DBB2FC18A2006700454C3F5F6446674347
:104C4000AC59674354583C195450002BEED1041C06
:104C5000601EC0B2002C03D04701069B0797F4E703
:104C60003C4B394A1E68131C0833DD6F3A49701BF0
:104C7000C317C7185F40324B3F140433DB7F9F429A
:104C80000FDB364B36142D0C000C1E805D80988097
:104C90000B78002B4CD0201C03212422FFF769F84D
:104CA00046E00B78002B0BD0234B059C197D082385
:104CB000009360230293022080230194FFF766F89B
:104CC000274B1E4A19781E4B92695A331B785BB2E8
:104CD0009A40002A00DC01221A4B00255D5721482A
:104CE0000B1C1A4EAD0006920DE0013BDBB21E4AD2
:104CF0005F00BA5E069F9C005743AA597A43275823
:104D0000944667442750002BEFD1134C2378002B97
:104D100006D0612300930220124A0823FFF71FF8F0
:104D200023780124002B03D002207B21FFF70AF80F
:104D300009B0201CF0BDC046C00F00204801002073
:104D4000041300204A000020FC0300200002002081
:104D5000E014002028020020EC000020B21A0020FD
:104D60008D0F00204C020020FA12002010B5074BD6
:104D70004400E45A064BDB8A934202D280235B0153
:104D8000E41800F035F9201A10BDC046F61A0020CC
:104D90000413002010B59CB07024221C68461749EB
:104DA00000F0E6F96946221C154800F0E1F9694671
:104DB000221C144800F0DCF913495022134800F07B
:104DC000D7F913492522134800F0D2F905241249D6
:104DD0001922124800F0CCF9221C1149114800F0A8
:104DE000C7F9221C1049114800F0C2F91049221CD1
:104DF000104800F0BDF91CB010BDC046585400006A
:104E0000200E00200413002008540000C00F0020D2
:104E100038550000E01900205D550000FC0D002011
:104E200076550000610200207B550000190E00201D
:104E3000DD5B00005C0F002008B50449044B4143D2
:104E40000448C91800F032F9C0B208BD44FEFFFFA3
:104E5000FE24020040420F0010B5114C0023E37005
:104E6000032323710F4B9B78022B06D0042B0AD10E
:104E7000D723A3700223637103E0F122A270637150
:104E80000123A371E371074BA07860331978FEF713
:104E9000CBFAA070A078FFF7CFFF207010BDC046FE
:104EA0003810002004130020F7B5364B364CDB7E5B
:104EB000002B00D1A371227801266379301C984021
:104EC00083B25343314DDB10DBB22B802278FA23BF
:104ED00060799B005343311C2D4F814088B2B988C3
:104EE0005843090100F0E2F8C7B26F8023782D2201
:104EF000607953438640B0B23901584300F0D6F888
:104F0000C0B2A880E379224862798179D800181A62
:104F10004900C0000131E03048437901904000F081
:104F200077F8184BE8801E7DD87C1A493018C0B23B
:104F300008705A7D4A709C7D5D7E65434519EDB2CF
:104F400001958D70DF7D9D7E7D43AC469444654622
:104F5000CD70197E104B002900D17C43564342434B
:104F60001C701B780D49D2180D4B0E801A80054B12
:104F7000019F5A7F1B7FBD185BB201359D40094BD5
:104F80001D60F7BDC00F002038100020180200205F
:104F900004130020150E00208D0F0020720F00203A
:104FA000EA120020640F002000B5074A136803606E
:104FB0000F23081C9843031C884200D00433116857
:104FC000CB18136000BDC0463C00002010B51C1C6F
:104FD000029B88420ADB904207DA1B1B401A5843A7
:104FE000511A00F063F8241800E01C1C201C10BDAE
:104FF00000B50230800103314118044B4900C85A02
:10500000904202DA80235B01C01800BD00400040DE
:10501000002934D00123002210B488422CD301246B
:105020002407A14204D2814202D209011B01F8E700
:10503000E400A14204D2814202D249005B00F8E7B9
:10504000884201D3401A1A434C08A04202D3001BE5
:105050005C0822438C08A04202D3001B9C08224318
:10506000CC08A04202D3001BDC082243002803D056
:105070001B0901D00909E3E7101C10BC7047002888
:1050800001D00020C04307B4024802A1401802909A
:1050900003BDC046D90000000029F0D003B5FFF7DA
:1050A000B9FF0EBC4243891A1847C046002941D0B7
:1050B00010B4041C4C40A44601230022002900D552
:1050C0004942002800D5404288422CD301242407BD
:1050D000A14204D2814202D209011B01F8E7E40097
:1050E000A14204D2814202D249005B00F8E7884223
:1050F00001D3401A1A434C08A04202D3001B5C089B
:1051000022438C08A04202D3001B9C082243CC08F7
:10511000A04202D3001BDC082243002803D01B0955
:1051200001D00909E3E7101C6446002C00D5404279
:1051300010BC7047002806D003DB0020C0434008A5
:1051400001E08020000607B4024802A14018029046
:1051500003BDC046190000000029EBD003B5FFF7DE
:10516000A7FF0EBC4243891A1847C0467047C04685
:10517000F0B5051C0F2A2FD90B1C0343051C9C07F7
:105180002CD10C1C031C151C2668103D1E60666883
:105190005E60A6689E60E6681034DE6010330F2DF6
:1051A000F2D8131C103B1B0901331B01C518C91889
:1051B0000F231A40032A0FD90E1C2C1C131C80CE5F
:1051C000043B80C4032BFAD8131F9B0801339B00B8
:1051D00003242240C918ED18002A05D00023CC5C16
:1051E000EC5401339342FAD1F0BDC04670B5830749
:1051F00042D0002A3FD0013ACEB2031C032503E07F
:10520000541E002A37D0221C1E7001332B42F7D1C6
:10521000032A28D9FF250D402C0225432C042543C1
:105220000F2A13D91C1C161C103E25606560A56052
:10523000E56010340F2EF7D8141C103C24090134FB
:1052400024011B190F242240032A0CD91E1C141CF4
:10525000043C20C6032CFBD8141FA4080134A4006E
:1052600003252A401B19002A05D0C9B2013A19703A
:105270000133002AFAD170BD031CC9E70101FFFF09
:1052800001FF01FFC00F0020200E0020E0190020C8
:10529000FC0D002061020020190E0020FA00002001
:1052A0005C0F002000FF0100FF000001000102036D
:1052B000040405060708090A0B0B0C0D0E0F10114C
:1052C00011121314151516171818191A1B1B1C1D6B
:1052D0001D1E1F1F202121222323242425252627AC
:1052E00027282829292A2A2B2B2C2C2D000078044A
:1052F000EF08660DDB115016C21A331FA1230C28CC
:10530000742CD93039359639EE3D42429046D94A0F
:105310001B4F58538E57BE5BE65F07641F68306CA7
:10532000397038742F781C7CFF7FD983A8876D8BE8
:10533000278FD5927996109A9B9D1BA18DA4F3A7D8
:105340004BAB97AED4B104B526B839BB3EBE34C121
:105350001BC4F2C6BAC973CC1BCFB3D13BD4B2D6EF
:1053600019D96EDBB3DDE6DF08E218E416E603E8E0
:10537000DDE9A5EB5BEDFEEE8FF00DF277F3CFF4F8
:1053800014F646F764F86FF967FA4BFB1BFCD8FC80
:1053900081FD17FE98FE06FF5FFFA5FFD7FFF5FF13
:1053A00001000002301B0020FF7F0080FF7F008093
:1053B00005FFFF02010C000C0604030004000000BE
:1053C0000101FFFF000000000000000000000000DD
:1053D000000000000000FFFF0000000000000000CF
:1053E000000000000000000000000000FFFFFFFFC1
:1053F000B9EC79BB0000000000000000000005547B
:105400004D314830434635344743320000000000F8
:1054100000000000480000000A0101001A0E000010
:10542000000000010100000000190D000D190A0024
:1054300000000005D002000000000067676701005F
:10544000282800000000AA00FA001405881319009B
:10545000050711010000000001010400C201200342
:105460000304020C0000005A1E000A000000900312
:105470009903EE02000001B40305FB6405078A02EC
:105480008A02F4015E0130000000000000400100CB
:105490002700120000004600B40050000201011471
:1054A0005F0000000000E7FFF4010F000F005A004A
:1054B0000F01030400000007070046000005600715
:1054C000EB00FF7F00800C00000002009001200430
:1054D000030302140000003C1E0088030000D705EF
:1054E000B501EC01000001B4030AF66414078A0256
:1054F0008A02F4015E01300000000000004001005B
:105500004F00260000004600B40000000302021E07
:10551000B40000000000E7FFF4011E000F005A0075
:105520001E020304000000070700FFFF2005CC0453
:105530009600FF7F008014001F1E1D1C1B1A1915EA
:1055400014131211100F0E0D0C0B0A0605040302A2
:10555000010000000000000000000000000F0E0D20
:105560000C0B0807060504030210110000000000E0
:10557000000000000000000000000000000000002B
:10558000F5F5F5F5F5F6F6F6F6F6F6F7F7F7F7F7BB
:10559000F8F8F8F8F9F9F9FAFAFA00000000000052
:1055A0000000000000F5F5F5F5F5F6F6F6F6F6F66E
:1055B000F7F7F7F7F7F8F8F8F9F9F9F9FAFAFA005E
:1055C00000000000000000000000F5F5F5F5F5F61C
:1055D000F6F6F6F6F6F7F7F7F7F7F8F8F8F9F9F957
:1055E000F9FAFAFA0000000000000000000000F5DF
:1055F000F5F5F5F5F6F6F6F6F6F6F7F7F7F7F8F847
:10560000F8F8F9F9F9FAFAFAFA00000000000000D7
:1056100000000000F5F5F5F5F5F6F6F6F6F6F6F706
:10562000F7F7F7F8F8F8F8F9F9F9FAFAFAFA0000E2
:10563000000000000000000000F5F5F5F5F5F6F6B5
:10564000F6F6F6F6F7F7F7F7F8F8F8F8F9F9F9FAE1
:10565000FAFAFA0000000000000000000000F5F572
:10566000F5F5F5F6F6F6F6F6F6F7F7F7F7F8F8F8D3
:10567000F9F9F9F9FAFAFAFA00000000000000005E
:10568000000000F5F5F5F5F5F6F6F6F6F6F6F7F79F
:10569000F7F7F8F8F8F9F9F9F9FAFAFAFA00000068
:1056A0000000000000000000F5F5F5F5F5F5F6F650
:1056B000F6F6F6F6F7F7F8F8F8F8F9F9F9F9FAFA6C
:1056C000FAFA0000000000000000000000F5F5F507
:1056D000F5F5F5F5F6F6F6F6F6F7F7F8F8F8F8F961
:1056E000F9F9FAFAFAFAFB000000000000000000E5
:1056F0000000F5F5F5F5F5F5F5F6F6F6F6F6F7F73B
:10570000F8F8F8F8F9F9F9FAFAFAFAFB00000000EB
:1057100000000000000000F5F5F5F5F5F5F5F6F6EA
:10572000F6F6F6F7F7F8F8F8F8F9F9F9FAFAFAFAF6
:10573000FB0000000000000000000000F5F5F5F59A
:10574000F5F5F5F5F6F6F6F6F6F7F8F8F8F8F9F9EE
:10575000F9FAFAFAFAFB000000000000000000006D
:1057600000F5F5F5F5F5F5F5F5F6F6F6F6F6F7F8D4
:10577000F8F8F8F9F9F9FAFAFAFAFB000000000073
:105780000000000000000000000000000000000019
:105790000000000000000000000000000000000009
:1057A00000000000000000000000000000000000F9
:1057B00000000000000000000000000000000000E9
:1057C00000000000000000000000000000000000D9
:1057D00000000000000000000000000000000000C9
:1057E00000000000000000000000000000000000B9
:1057F00000000000000000000000000000000000A9
:105800000000000000000000000000000000000098
:105810000000000000000000000000000000000088
:105820000000000000000000000000000000000078
:105830000000000000000000000000000000000068
:105840000000000000000000000000000000000058
:105850000000000000000000000000000000000048
:105860000000000000000000000000000000000038
:105870000000000000000000000000000000000028
:105880000000000000000000000000000000000018
:105890000000000000000000000000000000000008
:1058A00000000000000000000000000000000000F8
:1058B00000000000000000000000000000000000E8
:1058C00000000000000000000000000000000000D8
:1058D00000000000000000000000000000000000C8
:1058E00000000000000000000000000000000000B8
:1058F00000000000000000000000000000000000A8
:105900000000000000000000000000000000000097
:105910000000000000000000000000000000000087
:105920000000000000000000000000000000000077
:1059300000000000000000000000000000343232CF
:105940003232333332323230333335343333323030
:1059500033332B272625210000000000003432338A
:1059600032333232333232313332333231302E2F1E
:105970003331282625222100000000000035333372
:1059800033343535353435353638373C3C3C322FB9
:105990002D2D292926232000000000000035343455
:1059A00033333434353535353637393D3D3C312F99
:1059B0002E2C292925222100000000000036343435
:1059C000333334343434353334343433353B39338E
:1059D0002D2C2A2926242000000000000035343414
:1059E0003435343636353535363B3F3C3D372F3050
:1059F0002E2C2929262321000000000000353534F3
:105A000034343436353434353633343B3C3A352F40
:105A10002D2B2928252322000000000000363534D4
:105A20003535353636353534373536353C3A352F1C
:105A30002D2A2827252221000000000000353433BC
:105A4000333434353535343435343332333938370B
:105A50002D2B292825222100000000000036353496
:105A600034343535353534343535323232393635EE
:105A70002B29292725222100000000000037353579
:105A800035333535363436353635333232313937CC
:105A9000352929282422210000000000003736354E
:105AA00034353535363535343435333330323837AF
:105AB00032292A2725222100000000000036343632
:105AC0003335343433353435353A3B3C382F2E2D8D
:105AD0002B29292725222100000000000037353519
